:1000000000400820990C0000010D0000050D0000C3
:10001000090D00000D0D0000110D00000000000092
:10002000000000000000000000000000150D0000AE
:10003000190D0000000000001D0D0000210D000042
:10004000250D0000290D00002D0D0000310D0000D0
:10005000350D0000390D00003D0D0000410D000080
:10006000450D0000490D00004D0D0000510D000030
:10007000550D0000590D00005D0D0000610D0000E0
:10008000650D0000690D00006D0D0000710D000090
:10009000750D0000790D00007D0D0000810D000040
:1000A000850D0000890D00008D0D0000910D0000F0
:1000B000950D0000990D00009D0D0000A10D0000A0
:1000C00000B5ABB000238DF8A73000F025F803464B
:1000D0008DF8A7309DF9A730002B00D0FEE7012353
:1000E0000A936FF001031A936FF0010301936FF00D
:1000F000010307930A9B013B0A931A9B01331A934E
:10010000019B01330193079B01330793002318469A
:100110002BB05DF804FB00BF08B5084800F012F8EA
:100120000246074B1A60064B1B68002B01D1FF23C8
:1001300000E000235BB2184608BD00BF00C00720E6
:100140001003001000B585B00190019800F02AFE60
:100150000390039B184605B05DF804FB00B585B01D
:100160000190019B1B78042B01D9FF235DE0019BCB
:100170001B781A462F4B9B5C1946019B5B781A46ED
:100180002D4B53F82220019B5B68DBB208461146D9
:100190001A4600F051FD03468DF80F30019B1B7885
:1001A0001A46244B9B5C1946019B5B781A46224BEE
:1001B00053F82220019B1B69DBB2084611461A4600
:1001C00000F03CF803468DF80F30019B1B781A466F
:1001D000184B9B5C1946019B5B781A46164B53F8EB
:1001E0002220019B9B68DBB2084611461A4600F0AC
:1001F00065FA03468DF80F30019B1B781A460D4BAC
:100200009B5C1946019B5B781A460B4B53F82220E6
:10021000019BDB68DBB2084611461A4600F08EFCF3
:1002200003468DF80F309DF80F305BB2184605B0CD
:100230005DF804FB301A0000381A000086B0039005
:10024000029113468DF807309DF8073003F0030341
:100250008DF80730039B402B00F0E480402B04D83E
:10026000002B09D0202B72D01FE2602B00F04581BB
:10027000802B00F0AF8118E20023ADF816302BE0A0
:10028000BDF81630012202FA03F31A46029B13400E
:10029000BDF81620012101FA02F2934217D1CC4990
:1002A000CB4B1B68BDF816205200032000FA02F267
:1002B000D24313400B60C648C54B1B689DF807101E
:1002C000BDF81620520001FA02F213430360BDF894
:1002D00016300133ADF81630BDF816300F2BCFD9DC
:1002E0001023ADF816302DE0BDF81630012202FAC9
:1002F00003F31A46029B1340BDF81620012101FAB0
:1003000002F2934219D1B249B14B5B68BDF8162095
:10031000103A5200032000FA02F2D24313404B601D
:10032000AB48AB4B5B689DF80710BDF81620103A40
:10033000520001FA02F213434360BDF81630013354
:10034000ADF81630BDF816301F2BCDD9AFE1002324
:10035000ADF816302BE0BDF81630012202FA03F397
:100360001A46029B1340BDF81620012101FA02F241
:10037000934217D19649964B9B68BDF816205200C0
:10038000032000FA02F2D24313408B609048904B56
:100390009B689DF80710BDF81620520001FA02F282
:1003A00013438360BDF816300133ADF81630BDF845
:1003B00016300F2BCFD91023ADF816302DE0BDF835
:1003C0001630012202FA03F31A46029B1340BDF8CD
:1003D0001620012101FA02F2934219D17C497C4B8B
:1003E000DB68BDF81620103A5200032000FA02F232
:1003F000D2431340CB607648754BDB689DF80710FD
:10040000BDF81620103A520001FA02F21343C360FD
:10041000BDF816300133ADF81630BDF816301F2B7D
:10042000CDD944E10023ADF816302BE0BDF81630ED
:10043000012202FA03F31A46029B1340BDF816206C
:10044000012101FA02F2934217D16149604B1B6905
:10045000BDF816205200032000FA02F2D2431340E6
:100460000B615B485A4B1B699DF80710BDF81620BD
:10047000520001FA02F213430361BDF81630013352
:10048000ADF81630BDF816300F2BCFD91023ADF8CC
:1004900016302DE0BDF81630012202FA03F31A4699
:1004A000029B1340BDF81620012101FA02F293428B
:1004B00019D14749464B5B69BDF81620103A5200E6
:1004C000032000FA02F2D24313404B614048404BF4
:1004D0005B699DF80710BDF81620103A520001FA2A
:1004E00002F213434361BDF816300133ADF8163004
:1004F000BDF816301F2BCDD9D9E00023ADF816304A
:100500002BE0BDF81630012202FA03F31A46029BD3
:100510001340BDF81620012101FA02F2934217D1CF
:100520002B492B4B9B69BDF816205200032000FA83
:1005300002F2D24313408B612548254B9B699DF8FD
:100540000710BDF81620520001FA02F2134383612E
:10055000BDF816300133ADF81630BDF816300F2B4C
:10056000CFD91023ADF816302DE0BDF8163001229A
:1005700002FA03F31A46029B1340BDF8162001212C
:1005800001FA02F2934219D11149114BDB69BDF80E
:100590001620103A5200032000FA02F2D243134010
:1005A000CB610B480A4BDB699DF80710BDF816209C
:1005B000103A520001FA02F21343C361BDF816303B
:1005C0000133ADF81630BDF816301F2BCDD96EE0D3
:1005D00000C002400023ADF816302BE0BDF8163005
:1005E000012202FA03F31A46029B1340BDF81620BB
:1005F000012101FA02F2934217D12F492E4B1B6AB7
:10060000BDF816205200032000FA02F2D243134034
:100610000B622948284B1B6A9DF80710BDF816206D
:10062000520001FA02F213430362BDF8163001339F
:10063000ADF81630BDF816300F2BCFD91023ADF81A
:1006400016302DE0BDF81630012202FA03F31A46E7
:10065000029B1340BDF81620012101FA02F29342D9
:1006600019D11549144B5B6ABDF81620103A520097
:10067000032000FA02F2D24313404B620E480E4BA5
:100680005B6A9DF80710BDF81620103A520001FA77
:1006900002F213434362BDF816300133ADF8163051
:1006A000BDF816301F2BCDD901E0FF2300E0002359
:1006B0005BB2184606B0704700C0024086B0039097
:1006C000029113468DF807309DF8073003F00303BD
:1006D0008DF80730039B402B00F0E480402B04D8BA
:1006E000002B09D0202B72D01FE2602B00F0458137
:1006F000802B00F0AF8118E20023ADF816302BE01C
:10070000BDF81630012202FA03F31A46029B134089
:10071000BDF81620012101FA02F2934217D1CC490B
:10072000CB4B1B6CBDF816205200032000FA02F2DE
:10073000D24313400B64C648C54B1B6C9DF8071091
:10074000BDF81620520001FA02F213430364BDF80B
:1007500016300133ADF81630BDF816300F2BCFD957
:100760001023ADF816302DE0BDF81630012202FA44
:1007700003F31A46029B1340BDF81620012101FA2B
:1007800002F2934219D1B249B14B5B6CBDF816200D
:10079000103A5200032000FA02F2D24313404B6495
:1007A000AB48AB4B5B6C9DF80710BDF81620103AB8
:1007B000520001FA02F213434364BDF816300133CC
:1007C000ADF81630BDF816301F2BCDD9AFE10023A0
:1007D000ADF816302BE0BDF81630012202FA03F313
:1007E0001A46029B1340BDF81620012101FA02F2BD
:1007F000934217D19649964B9B6CBDF81620520038
:10080000032000FA02F2D24313408B649048904BCD
:100810009B6C9DF80710BDF81620520001FA02F2F9
:1008200013438364BDF816300133ADF81630BDF8BC
:1008300016300F2BCFD91023ADF816302DE0BDF8B0
:100840001630012202FA03F31A46029B1340BDF848
:100850001620012101FA02F2934219D17C497C4B06
:10086000DB6CBDF81620103A5200032000FA02F2A9
:10087000D2431340CB647648754BDB6C9DF8071070
:10088000BDF81620103A520001FA02F21343C36475
:10089000BDF816300133ADF81630BDF816301F2BF9
:1008A000CDD944E10023ADF816302BE0BDF8163069
:1008B000012202FA03F31A46029B1340BDF81620E8
:1008C000012101FA02F2934217D16149604B1B6D7D
:1008D000BDF816205200032000FA02F2D243134062
:1008E0000B655B485A4B1B6D9DF80710BDF8162031
:1008F000520001FA02F213430365BDF816300133CA
:10090000ADF81630BDF816300F2BCFD91023ADF847
:1009100016302DE0BDF81630012202FA03F31A4614
:10092000029B1340BDF81620012101FA02F2934206
:1009300019D14749464B5B6DBDF81620103A52005D
:10094000032000FA02F2D24313404B654048404B6B
:100950005B6D9DF80710BDF81620103A520001FAA1
:1009600002F213434365BDF816300133ADF816307B
:10097000BDF816301F2BCDD9D9E00023ADF81630C5
:100980002BE0BDF81630012202FA03F31A46029B4F
:100990001340BDF81620012101FA02F2934217D14B
:1009A0002B492B4B9B6DBDF816205200032000FAFB
:1009B00002F2D24313408B652548254B9B6D9DF871
:1009C0000710BDF81620520001FA02F213438365A6
:1009D000BDF816300133ADF81630BDF816300F2BC8
:1009E000CFD91023ADF816302DE0BDF81630012216
:1009F00002FA03F31A46029B1340BDF816200121A8
:100A000001FA02F2934219D11149114BDB6DBDF885
:100A10001620103A5200032000FA02F2D24313408B
:100A2000CB650B480A4BDB6D9DF80710BDF816200F
:100A3000103A520001FA02F21343C365BDF81630B2
:100A40000133ADF81630BDF816301F2BCDD96EE04E
:100A500000C002400023ADF816302BE0BDF8163080
:100A6000012202FA03F31A46029B1340BDF8162036
:100A7000012101FA02F2934217D12F492E4B1B6E2E
:100A8000BDF816205200032000FA02F2D2431340B0
:100A90000B662948284B1B6E9DF80710BDF81620E1
:100AA000520001FA02F213430366BDF81630013317
:100AB000ADF81630BDF816300F2BCFD91023ADF896
:100AC00016302DE0BDF81630012202FA03F31A4663
:100AD000029B1340BDF81620012101FA02F2934255
:100AE00019D11549144B5B6EBDF81620103A52000F
:100AF000032000FA02F2D24313404B660E480E4B1D
:100B00005B6E9DF80710BDF81620103A520001FAEE
:100B100002F213434366BDF816300133ADF81630C8
:100B2000BDF816301F2BCDD901E0FF2300E00023D4
:100B30005BB2184606B0704700C0024084B0039014
:100B4000029113468DF80730039B402B31D0402B88
:100B500004D8002B07D0202B18D063E0602B3BD0AB
:100B6000802B4CD05EE09DF80730002B06D0314939
:100B7000304B9A6E029B13438B6655E02D492D4BEB
:100B80009A6E029BDB4313408B664DE09DF8073065
:100B9000002B06D02749274BDA6E029B1343CB6606
:100BA00042E02449234BDA6E029BDB431340CB66C1
:100BB0003AE09DF80730002B06D01E491D4B1A6FF6
:100BC000029B13430B672FE01A491A4B1A6F029BC3
:100BD000DB4313400B6727E09DF80730002B06D05E
:100BE0001449144B5A6F029B13434B671CE0114985
:100BF000104B5A6F029BDB4313404B6714E09DF888
:100C00000730002B06D00B490A4B9A6F029B134307
:100C10008B6709E00749074B9A6F029BDB43134040
:100C20008B6701E0FF2300E000235BB2184604B0AD
:100C3000704700BF00C0024084B003900291134689
:100C40008DF807309DF80730012B0FD1039B03F17E
:100C5000005303F51C231946039B03F1005303F5CE
:100C60001C231A68029B13430B600FE0039B03F1E4
:100C7000005303F51C231946039B03F1005303F5AE
:100C80001C231A68029BDB4313400B6000235BB2FA
:100C9000184604B0704700BF00B583B0114B124A2C
:100CA0001A60124B0193124B009307E0009B1A1D30
:100CB0000092019A111D019112681A60009B0D4A61
:100CC0009342F3D30C4B009304E0009B1A1D009257
:100CD00000221A60009B094A9342F6D3FFF7F0F90D
:100CE000FEE700BF08ED00E000000000C41A0000AD
:100CF00000C0072074C00720000000101803001077
:100D0000FEE700BFFEE700BFFEE700BFFEE700BF53
:100D1000FEE700BFFEE700BFFEE700BFFEE700BF43
:100D2000FEE700BFFEE700BFFEE700BFFEE700BF33
:100D3000FEE700BFFEE700BFFEE700BFFEE700BF23
:100D4000FEE700BFFEE700BFFEE700BFFEE700BF13
:100D5000FEE700BFFEE700BFFEE700BFFEE700BF03
:100D6000FEE700BFFEE700BFFEE700BFFEE700BFF3
:100D7000FEE700BFFEE700BFFEE700BFFEE700BFE3
:100D8000FEE700BFFEE700BFFEE700BFFEE700BFD3
:100D9000FEE700BFFEE700BFFEE700BFFEE700BFC3
:100DA000FEE700BF00B585B0019000238DF80F303D
:100DB000002000F00DFD03460293029B002B01D1A1
:100DC00000230CE0019800F059F903468DF80F302C
:100DD0009DF90F30002B01D0002300E0029B184644
:100DE00005B05DF804FB00BF88B00190234BD3F839
:100DF0008830C3F30E0301330593204BD3F88830BA
:100E00001B0CDBB2013304931C4BD3F80431DBB26F
:100E100001330393194BD3F80C3103F0030302930E
:100E2000029B012B04D0022B06D0154B079307E041
:100E3000144B1B68079303E04FF40043079300BF74
:100E40000E4BD3F888301B0E03F00303032B0CD199
:100E5000079A049BB2FBF3F3059A02FB03F35A00D3
:100E6000039BB2FBF3F3069304E0079A039BB2FBE8
:100E7000F3F30693069B184608B0704700C00F4076
:100E800000093D000000001084B00390029101921F
:100E9000029B1E2B19D91949184BD3F8AC31029A71
:100EA000203A104603228240D2431340C1F8AC31AD
:100EB0001249124BD3F8AC21029B203B1846019BF0
:100EC00083401343C1F8AC3116E00C490B4BD3F807
:100ED000A831029A032000FA02F2D2431340C1F86B
:100EE000A8310648054BD3F8A821029B019901FAC5
:100EF00003F31343C0F8A83104B0704700C00F409B
:100F000000B587B0019000911B4A03AB10681860D0
:100F10000198FFF769FF0490009B1E2B10D9174B17
:100F2000D3F8AC31009A203A114603228A4013408C
:100F30000593009B203B1A46059BD34005930DE08B
:100F40000E4BD3F8A831009A032101FA02F21340A4
:100F50000593009B059A22FA03F3059303AA059BC8
:100F600013441B781A46049BB3FBF2F30493049BCF
:100F7000184607B05DF804FBB81A000000C00F4027
:100F800000B587B00390029101920093344BD3F8DF
:100F900088300593324B2022C3F8A02100BF304B8C
:100FA000D3F8A03103F04003002BF8D0059B03F0E9
:100FB0000073002B09D02A4A294BD3F8803023F044
:100FC0000103C2F8803000F04DF8059B03F08073F8
:100FD000002B09D0224A224BD3F8803023F00203A1
:100FE000C2F8803000F03EF81D4A009BC2F80C3178
:100FF0001B49039B013B1A04029B013B1343C1F8AD
:10100000843000F02FF8164B0122C3F8802000F046
:1010100029F8134A019B013BC2F80431104B00220E
:10102000C3F8A8210E4B0022C3F8AC2100BF0C4B23
:10103000D3F8883003F08063002BF8D0084B0322EC
:10104000C3F8802000F00EF8054BD3F888300593E4
:101050000023059300235BB2184607B05DF804FB3C
:1010600000C00F40044BAA22C3F88C20024B55222B
:10107000C3F88C20704700BF00C00F4000B58BB094
:1010800001900023079300238DF81B30019B5B68C0
:101090002C4A1360019B1B682B4AB2FBF3F30593A8
:1010A000019B1B68059A02FB03F2019B5B685B00D6
:1010B000B2FBF3F30493049B089316E0019B5B6877
:1010C000224AA2FB03239B0C089AB3FBF2F2089975
:1010D00001FB02F29B1A002B04D1089B0993012308
:1010E00007930BE0089B01330893019B5B68174A49
:1010F000A2FB03239A0C089B9A42DFD2079B002B8A
:1011000001D1FE2318E0019B1B68059A02FB03F343
:10111000099A02FB03F30E4AA2FB03235B0D039320
:10112000019B1B7A09980399059AFFF729FF03464B
:101130008DF81B309DF81B305BB218460BB05DF884
:1011400004FB00BF0000001000A3E11183DE1B437D
:10115000819F5E1600B589B0019000238DF81E3086
:1011600000238DF81F3000230693019B9B78039387
:10117000019BDB780493019B1B790593019B1B78F2
:101180008DF80830019B5B788DF8093002AB18466A
:10119000FEF7E4FF03468DF81E309DF91E30002B4C
:1011A00002D09DF81E305FE0019B5B79012B53D18B
:1011B000019B1B78022B05D0019B1B78002B01D0D3
:1011C000FF2351E0019B1B78022B05D1019B5B782B
:1011D0000D2B01D9FF2347E0019B1B78002B0DD17C
:1011E000019B5B780C2B07D0019B5B780D2B03D008
:1011F000019B5B780E2B01D1FF2335E0019BDB784F
:10120000032B01D9FF232FE000238DF81F301CE0B2
:101210009DF91F30174AD35C002B0FD19DF81F207A
:10122000154B1A709DF91F30124A0121D1549DF9B6
:101230001F30019A9179114AD1540AE09DF81F306C
:10124000DBB20133DBB28DF81F309DF91F30292B43
:10125000DEDD0B4B01221A700A4B1B78013BDAB220
:10126000084B1A709DF81E305BB2184609B05DF845
:1012700004FB00BFD8020010D402001004000010CC
:10128000020300100CC0072082B00190019B1B7963
:101290005A01074B13441A46019B5B7919460123F7
:1012A0008B40136000235BB2184602B0704700BF4A
:1012B00018C0092082B00190019B1B795A01074B8D
:1012C00013441A46019B5B79194601238B40136036
:1012D00000235BB2184602B0704700BF1CC0092053
:1012E00084B00190019B1B795A010A4B13441B687F
:1012F0000393019B5B791A46012303FA02F2039BD5
:101300001340019A52791341DBB25BB2184604B024
:10131000704700BF14C0092082B001900B468DF8C1
:1013200003309DF80330002B17D0019B1B7903F18C
:10133000807303F59C435B011946019B1B7903F104
:10134000807303F59C435B011B68019A5279104638
:101350000122824013430B6017E0019B1B7903F1CC
:10136000807303F59C435B011946019B1B7903F1D4
:10137000807303F59C435B011B68019A5279104608
:1013800001228240D24313400B6000235BB2184617
:1013900002B07047014B1B78184670470CC00720FD
:1013A00084B0019000238DF80F30019B1B79022B34
:1013B00005D0019B1B79002B01D0FD239DE000236C
:1013C0008DF80F3090E09DF80F204E4913465B00DA
:1013D00013449B000B445A78019B5B799A427ED15F
:1013E000019B1B79002B02D0022B3CD077E09DF8AB
:1013F0000F30454AD35C002B09D14449434B5B690C
:10140000019A527910460122824013434B619DF8A4
:101410000F303D4AD35C012B09D13C493B4B1B6942
:10142000019A527910460122824013430B619DF8C4
:101430000F30354AD35C022B14D13449334B5B69EE
:10144000019A527910460122824013434B612F4981
:101450002E4B1B69019A5279104601228240134398
:101460000B613CE03BE09DF80F30274AD35C002B3A
:1014700009D12649254B5B6B019A5279104601220E
:10148000824013434B639DF80F301F4AD35C012BFE
:1014900009D11E491D4B1B6B019A5279104601223E
:1014A000824013430B639DF80F30174AD35C022B25
:1014B00014D11649154B5B6B019A527910460122E3
:1014C000824013434B631149104B1B6B019A5279B5
:1014D00010460122824013430B63FFE700BF9DF8D3
:1014E0000F3001338DF80F309DF80F30292B7FF628
:1014F0006AAF074B01221A7000235BB2184604B092
:10150000704700BFDC000010040000108080024023
:101510002E00001082B00190034B00221A700023AD
:101520005BB2184602B070472E00001084B00190E4
:10153000009100238DF80F3000238DF80F3018E054
:101540009DF80F20114913465B0013449B000B4488
:101550005A78019B5B799A4206D19DF80F300C496D
:10156000009A41F8232008E09DF80F3001338DF8F0
:101570000F309DF80F30292BE2D9064B01221A704B
:1015800000235BB2184604B0704700BFDC000010B7
:1015900030000010D800001084B0019000238DF8B6
:1015A0000F30174B1B78012B01D1FF2324E00023C0
:1015B0008DF80F3018E09DF80F20124913465B009C
:1015C00013449B000B445A78019B5B799A4206D1E5
:1015D0009DF80F300C4A002142F8231008E09DF8D6
:1015E0000F3001338DF80F309DF80F30292BE2D9E1
:1015F000034B00221A7000235BB2184604B07047F8
:10160000D8000010DC0000103000001000B585B0DC
:10161000019000238DF80F30FFF7BCFE0346002B2E
:1016200026D0082000F0D4F803460293029B002B3A
:1016300001D100231DE0019B1A78029B1A71019BC6
:101640005A78029B5A71019B9A78029B9A71029B6D
:1016500000221A600198FFF77DFD03468DF80F30D8
:101660009DF90F30002B01D0002302E0029B00E027
:101670000023184605B05DF804FB00BF00B585B037
:10168000019000238DF80F30019B1B68002B06D1C1
:101690000198FFF7F9FD03468DF80F3007E0019B35
:1016A0001B685B680198984703468DF80F309DF8DA
:1016B0000F305BB2184605B05DF804FB00B585B08D
:1016C000019000238DF80F30019B1B68002B06D181
:1016D0000198FFF7EFFD03468DF80F3007E0019BFF
:1016E0001B689B680198984703468DF80F309DF85A
:1016F0000F305BB2184605B05DF804FB00B585B04D
:10170000019000238DF80F30019B1B68002B06D140
:101710000198FFF7E5FD03468DF80F3007E0019BC8
:101720001B68DB680198984703468DF80F309DF8D9
:101730000F305BB2184605B05DF804FB00B585B00C
:1017400001900B468DF8033000238DF80F30019B7C
:101750001B68002B09D19DF8033001981946FFF74B
:10176000DBFD03468DF80F300AE0019B1B681B6907
:101770009DF8032001981146984703468DF80F30D5
:101780009DF80F305BB2184605B05DF804FB00BF52
:1017900000B583B000238DF80730FFF7FBFD03464B
:1017A0008DF807309DF80730184603B05DF804FB4C
:1017B00000B585B00190019B5B690198984703468D
:1017C0008DF80F309DF80F30184605B05DF804FB1A
:1017D000024B0146186800F04FB800BF70C00720E8
:1017E000024B0146186800F003B800BF70C0072024
:1017F00030B500293CD051F8042C0B1F1D49002A9C
:10180000B8BF9B180A680C4612B95A600B6030BD0D
:1018100093420DD219685818904201BF5A58521875
:101820001A60426823605A6030BD994203D80A4664
:1018300051680029F9D1146815199D420AD11B6815
:101840002344D0188842136012D1086803441360FF
:101850004B680CE002D90C23036030BD1C681819DA
:10186000884201BF086849680019186059605360D0
:1018700030BD00BF0803001070B5CC1C24F0030479
:1018800008340C2C38BF0C24002C064603DA0C2339
:101890003360002070BD8C42F9D3204A1368104693
:1018A0001946A1B10A68121B0ED40B2A03D90A608B
:1018B0008B188C501FE08B420BBF5A684A6802603D
:1018C0005A6018BF0B4616E00B464968E9E7144D0D
:1018D0002B681BB9304600F025F8286030462146B9
:1018E00000F020F8421C0346D1D0C51C25F00305AA
:1018F00085420AD11C6003F10B001A1D20F007007D
:10190000821A0AD05142995070BD3046E91A00F04F
:1019100009F80130BBD02B46ECE770BD080300107E
:101920000403001038B5064C002305460846236022
:1019300000F070F8431C02D1236803B12B6038BD5E
:101940001403001038B50C460968054609B1FFF7C5
:10195000F9FF28462146BDE83840FFF749BF00009F
:101960002B4B70B51B680446984250D0436AD3B1E4
:10197000DB6893B10025636ADB68595929B10E68A9
:101980002046FFF735FF3146F8E70435802DF2D1C8
:10199000636A2046D968FFF72BFF636A196811B1A3
:1019A0002046FFF725FF616911B12046FFF720FFB0
:1019B000616A11B12046FFF71BFFA16B11B12046F0
:1019C000FFF716FFE16B11B12046FFF711FF216C05
:1019D00011B12046FFF70CFFE16D11B12046FFF772
:1019E00007FFA16D11B12046FFF702FF616B11B136
:1019F0002046FFF7FDFEA3694BB1A36A2046984736
:101A0000A16C21B12046BDE87040FFF79BBF70BDBF
:101A100070C00720044A05491368002B08BF0B4615
:101A200018441060184670470C03001074C007205B
:101A30000020406080000000010000000200000063
:101A4000040000000800000010000000200000005A
:101A500040000000800000000001000000020000C3
:101A6000000400000008000000100000002000003A
:101A700000400000008000000000010000000200A3
:101A8000000004000000080000001000000020001A
:101A90000000400000008000000000010000000283
:101AA00000000004000000080000001000000020FA
:101AB0000000004000000080040102084300000014
:041AC00010C007202B
:101AC40000E1F505001BB700010000003200000032
:101AD4000000000000000000000000000000000002
:101AE40000000000000000000000000000000000F2
:101AF400BC1A00000000000000000000000000000C
:101B040000000000000000000000000000000000D1
:101B140000000000000000000000000000000000C1
:101B240000000000000000000000000000000000B1
:041B340010C00720B6
:00000001FF
