:1000000000400820F90E0000610F0000650F00009D
:10001000690F00006D0F0000710F0000000000006C
:10002000000000000000000000000000750F00004C
:10003000790F0000000000007D0F0000810F00001C
:10004000850F0000890F00008D0F0000910F000048
:10005000950F0000B124000075250000392600002E
:10006000FD260000A90F000081350000113B0000B3
:10007000A1400000B90F0000BD0F0000C10F00003B
:10008000C50F0000C90F0000CD0F0000D10F000008
:10009000D50F0000D90F0000DD0F0000E10F0000B8
:1000A000E50F0000E90F0000ED0F0000F10F000068
:1000B000F50F0000F90F0000FD0F00000110000017
:1000C00010B592B000238DF8173000238DF816304C
:1000D00000238DF8153000F003F903468DF8173032
:1000E0009DF91730002B00D0FEE70023119320E08C
:1000F0000023109302E0109B01331093109B594A88
:100100009342F8D9584B1B68184601F0E7FB0023CF
:100110000F9302E00F9B01330F930F9B514A9342C1
:10012000F8D9514B1B68184601F0F8FB119B0133BD
:100130001193119B022BDBDD00238DF814304B4B08
:1001400001AC0FCB07C4238001AB184600F0B2F816
:1001500003468DF814309DF9143013F1080F27D1A0
:1001600000230E9320E000230D9302E00D9B01334A
:100170000D930D9B3B4A9342F8D93B4B1B681846A5
:1001800001F0ACFB00230C9302E00C9B01330C93B9
:100190000C9B344A9342F8D9334B1B68184601F044
:1001A000BDFB0E9B01330E930E9B022BDBDD57E054
:1001B0009DF9143013F1060F27D100230B9320E093
:1001C00000230A9302E00A9B01330A930A9B254A03
:1001D0009342F8D9264B1B68184601F07FFB002399
:1001E000099302E0099B01330993099B1D4A93423D
:1001F000F8D91F4B1B68184601F090FB0B9B01338D
:100200000B930B9B022BDBDDFEE79DF91430002BDB
:1002100026D10023089320E00023079302E0079BE8
:1002200001330793079B0F4A9342F8D9114B1B6880
:10023000184601F053FB0023069302E0069B0133AE
:100240000693069B074A9342F8D90A4B1B68184647
:1002500001F064FB089B01330893089B022BDBDD54
:100260006DE700BF3F4B4C0080040010FC650000B0
:100270007C0400107804001082B000230193002356
:10028000019302E0019B01330193019B024A9342D7
:10029000F8D902B0704700BF7FF0FA0208B50348F2
:1002A00004F0C6F90246024B1A6008BD40C00720A0
:1002B0007404001000B585B00390074B186803A9BB
:1002C000064B5A6800921B68042204F0FDF90346AD
:1002D000184605B05DF804FB740400107CC00720CC
:1002E00008B5224800F05EF80246214B1A60204B08
:1002F0001B68002B01D1FF2334E01E4804F098F95D
:1003000002461D4B1A601D4801F0B0FA02461C4B14
:100310001A601C4801F0AAFA02461B4B1A601B48DF
:1003200001F0A4FA02461A4B1A601A4801F09EFA2C
:100330000246194B1A60194804F0D6FA0246184BC7
:100340001A60FFF7ABFF104B1B68002B07D0124B56
:100350001B68002B03D00A4B1B68002B01D1FF2325
:1003600000E000235BB2184608BD00BF00C00720B4
:100370008404001040C00720740400100CC0072043
:100380007C04001018C007208004001024C007203F
:100390007804001030C007207004001054C00720FB
:1003A0006C04001000B585B00190019800F02AFEA1
:1003B0000390039B184605B05DF804FB00B585B0BB
:1003C0000190019B1B78042B01D9FF235DE0019B69
:1003D0001B781A462F4B9B5C1946019B5B781A468B
:1003E0002D4B53F82220019B5B68DBB20846114677
:1003F0001A4600F051FD03468DF80F30019B1B7823
:100400001A46244B9B5C1946019B5B781A46224B8B
:1004100053F82220019B1B69DBB2084611461A469D
:1004200000F03CF803468DF80F30019B1B781A460C
:10043000184B9B5C1946019B5B781A46164B53F888
:100440002220019B9B68DBB2084611461A4600F049
:1004500065FA03468DF80F30019B1B781A460D4B49
:100460009B5C1946019B5B781A460B4B53F8222084
:10047000019BDB68DBB2084611461A4600F08EFC91
:1004800003468DF80F309DF80F305BB2184605B06B
:100490005DF804FB0C6600001466000086B0039053
:1004A000029113468DF807309DF8073003F00303DF
:1004B0008DF80730039B402B00F0E480402B04D8DC
:1004C000002B09D0202B72D01FE2602B00F0458159
:1004D000802B00F0AF8118E20023ADF816302BE03E
:1004E000BDF81630012202FA03F31A46029B1340AC
:1004F000BDF81620012101FA02F2934217D1CC492E
:10050000CB4B1B68BDF816205200032000FA02F204
:10051000D24313400B60C648C54B1B689DF80710BB
:10052000BDF81620520001FA02F213430360BDF831
:1005300016300133ADF81630BDF816300F2BCFD979
:100540001023ADF816302DE0BDF81630012202FA66
:1005500003F31A46029B1340BDF81620012101FA4D
:1005600002F2934219D1B249B14B5B68BDF8162033
:10057000103A5200032000FA02F2D24313404B60BB
:10058000AB48AB4B5B689DF80710BDF81620103ADE
:10059000520001FA02F213434360BDF816300133F2
:1005A000ADF81630BDF816301F2BCDD9AFE10023C2
:1005B000ADF816302BE0BDF81630012202FA03F335
:1005C0001A46029B1340BDF81620012101FA02F2DF
:1005D000934217D19649964B9B68BDF8162052005E
:1005E000032000FA02F2D24313408B609048904BF4
:1005F0009B689DF80710BDF81620520001FA02F220
:1006000013438360BDF816300133ADF81630BDF8E2
:1006100016300F2BCFD91023ADF816302DE0BDF8D2
:100620001630012202FA03F31A46029B1340BDF86A
:100630001620012101FA02F2934219D17C497C4B28
:10064000DB68BDF81620103A5200032000FA02F2CF
:10065000D2431340CB607648754BDB689DF807109A
:10066000BDF81620103A520001FA02F21343C3609B
:10067000BDF816300133ADF81630BDF816301F2B1B
:10068000CDD944E10023ADF816302BE0BDF816308B
:10069000012202FA03F31A46029B1340BDF816200A
:1006A000012101FA02F2934217D16149604B1B69A3
:1006B000BDF816205200032000FA02F2D243134084
:1006C0000B615B485A4B1B699DF80710BDF816205B
:1006D000520001FA02F213430361BDF816300133F0
:1006E000ADF81630BDF816300F2BCFD91023ADF86A
:1006F00016302DE0BDF81630012202FA03F31A4637
:10070000029B1340BDF81620012101FA02F2934228
:1007100019D14749464B5B69BDF81620103A520083
:10072000032000FA02F2D24313404B614048404B91
:100730005B699DF80710BDF81620103A520001FAC7
:1007400002F213434361BDF816300133ADF81630A1
:10075000BDF816301F2BCDD9D9E00023ADF81630E7
:100760002BE0BDF81630012202FA03F31A46029B71
:100770001340BDF81620012101FA02F2934217D16D
:100780002B492B4B9B69BDF816205200032000FA21
:1007900002F2D24313408B612548254B9B699DF89B
:1007A0000710BDF81620520001FA02F213438361CC
:1007B000BDF816300133ADF81630BDF816300F2BEA
:1007C000CFD91023ADF816302DE0BDF81630012238
:1007D00002FA03F31A46029B1340BDF816200121CA
:1007E00001FA02F2934219D11149114BDB69BDF8AC
:1007F0001620103A5200032000FA02F2D2431340AE
:10080000CB610B480A4BDB699DF80710BDF8162039
:10081000103A520001FA02F21343C361BDF81630D8
:100820000133ADF81630BDF816301F2BCDD96EE070
:1008300000C002400023ADF816302BE0BDF81630A2
:10084000012202FA03F31A46029B1340BDF8162058
:10085000012101FA02F2934217D12F492E4B1B6A54
:10086000BDF816205200032000FA02F2D2431340D2
:100870000B622948284B1B6A9DF80710BDF816200B
:10088000520001FA02F213430362BDF8163001333D
:10089000ADF81630BDF816300F2BCFD91023ADF8B8
:1008A00016302DE0BDF81630012202FA03F31A4685
:1008B000029B1340BDF81620012101FA02F2934277
:1008C00019D11549144B5B6ABDF81620103A520035
:1008D000032000FA02F2D24313404B620E480E4B43
:1008E0005B6A9DF80710BDF81620103A520001FA15
:1008F00002F213434362BDF816300133ADF81630EF
:10090000BDF816301F2BCDD901E0FF2300E00023F6
:100910005BB2184606B0704700C0024086B0039034
:10092000029113468DF807309DF8073003F003035A
:100930008DF80730039B402B00F0E480402B04D857
:10094000002B09D0202B72D01FE2602B00F04581D4
:10095000802B00F0AF8118E20023ADF816302BE0B9
:10096000BDF81630012202FA03F31A46029B134027
:10097000BDF81620012101FA02F2934217D1CC49A9
:10098000CB4B1B6CBDF816205200032000FA02F27C
:10099000D24313400B64C648C54B1B6C9DF807102F
:1009A000BDF81620520001FA02F213430364BDF8A9
:1009B00016300133ADF81630BDF816300F2BCFD9F5
:1009C0001023ADF816302DE0BDF81630012202FAE2
:1009D00003F31A46029B1340BDF81620012101FAC9
:1009E00002F2934219D1B249B14B5B6CBDF81620AB
:1009F000103A5200032000FA02F2D24313404B6433
:100A0000AB48AB4B5B6C9DF80710BDF81620103A55
:100A1000520001FA02F213434364BDF81630013369
:100A2000ADF81630BDF816301F2BCDD9AFE100233D
:100A3000ADF816302BE0BDF81630012202FA03F3B0
:100A40001A46029B1340BDF81620012101FA02F25A
:100A5000934217D19649964B9B6CBDF816205200D5
:100A6000032000FA02F2D24313408B649048904B6B
:100A70009B6C9DF80710BDF81620520001FA02F297
:100A800013438364BDF816300133ADF81630BDF85A
:100A900016300F2BCFD91023ADF816302DE0BDF84E
:100AA0001630012202FA03F31A46029B1340BDF8E6
:100AB0001620012101FA02F2934219D17C497C4BA4
:100AC000DB6CBDF81620103A5200032000FA02F247
:100AD000D2431340CB647648754BDB6C9DF807100E
:100AE000BDF81620103A520001FA02F21343C36413
:100AF000BDF816300133ADF81630BDF816301F2B97
:100B0000CDD944E10023ADF816302BE0BDF8163006
:100B1000012202FA03F31A46029B1340BDF8162085
:100B2000012101FA02F2934217D16149604B1B6D1A
:100B3000BDF816205200032000FA02F2D2431340FF
:100B40000B655B485A4B1B6D9DF80710BDF81620CE
:100B5000520001FA02F213430365BDF81630013367
:100B6000ADF81630BDF816300F2BCFD91023ADF8E5
:100B700016302DE0BDF81630012202FA03F31A46B2
:100B8000029B1340BDF81620012101FA02F29342A4
:100B900019D14749464B5B6DBDF81620103A5200FB
:100BA000032000FA02F2D24313404B654048404B09
:100BB0005B6D9DF80710BDF81620103A520001FA3F
:100BC00002F213434365BDF816300133ADF8163019
:100BD000BDF816301F2BCDD9D9E00023ADF8163063
:100BE0002BE0BDF81630012202FA03F31A46029BED
:100BF0001340BDF81620012101FA02F2934217D1E9
:100C00002B492B4B9B6DBDF816205200032000FA98
:100C100002F2D24313408B652548254B9B6D9DF80E
:100C20000710BDF81620520001FA02F21343836543
:100C3000BDF816300133ADF81630BDF816300F2B65
:100C4000CFD91023ADF816302DE0BDF816300122B3
:100C500002FA03F31A46029B1340BDF81620012145
:100C600001FA02F2934219D11149114BDB6DBDF823
:100C70001620103A5200032000FA02F2D243134029
:100C8000CB650B480A4BDB6D9DF80710BDF81620AD
:100C9000103A520001FA02F21343C365BDF8163050
:100CA0000133ADF81630BDF816301F2BCDD96EE0EC
:100CB00000C002400023ADF816302BE0BDF816301E
:100CC000012202FA03F31A46029B1340BDF81620D4
:100CD000012101FA02F2934217D12F492E4B1B6ECC
:100CE000BDF816205200032000FA02F2D24313404E
:100CF0000B662948284B1B6E9DF80710BDF816207F
:100D0000520001FA02F213430366BDF816300133B4
:100D1000ADF81630BDF816300F2BCFD91023ADF833
:100D200016302DE0BDF81630012202FA03F31A4600
:100D3000029B1340BDF81620012101FA02F29342F2
:100D400019D11549144B5B6EBDF81620103A5200AC
:100D5000032000FA02F2D24313404B660E480E4BBA
:100D60005B6E9DF80710BDF81620103A520001FA8C
:100D700002F213434366BDF816300133ADF8163066
:100D8000BDF816301F2BCDD901E0FF2300E0002372
:100D90005BB2184606B0704700C0024084B00390B2
:100DA000029113468DF80730039B402B31D0402B26
:100DB00004D8002B07D0202B18D063E0602B3BD049
:100DC000802B4CD05EE09DF80730002B06D03149D7
:100DD000304B9A6E029B13438B6655E02D492D4B89
:100DE0009A6E029BDB4313408B664DE09DF8073003
:100DF000002B06D02749274BDA6E029B1343CB66A4
:100E000042E02449234BDA6E029BDB431340CB665E
:100E10003AE09DF80730002B06D01E491D4B1A6F93
:100E2000029B13430B672FE01A491A4B1A6F029B60
:100E3000DB4313400B6727E09DF80730002B06D0FB
:100E40001449144B5A6F029B13434B671CE0114922
:100E5000104B5A6F029BDB4313404B6714E09DF825
:100E60000730002B06D00B490A4B9A6F029B1343A5
:100E70008B6709E00749074B9A6F029BDB431340DE
:100E80008B6701E0FF2300E000235BB2184604B04B
:100E9000704700BF00C0024084B003900291134627
:100EA0008DF807309DF80730012B0FD1039B03F11C
:100EB000005303F51C231946039B03F1005303F56C
:100EC0001C231A68029B13430B600FE0039B03F182
:100ED000005303F51C231946039B03F1005303F54C
:100EE0001C231A68029BDB4313400B6000235BB298
:100EF000184604B0704700BF00B583B0114B124ACA
:100F00001A60124B0193124B009307E0009B1A1DCD
:100F10000092019A111D019112681A60009B0D4AFE
:100F20009342F3D30C4B009304E0009B1A1D0092F4
:100F300000221A60009B094A9342F6D3FFF7C0F8DB
:100F4000FEE700BF08ED00E0000000006C67000055
:100F500000C00720A4C30720000000108C0400106C
:100F6000FEE700BFFEE700BFFEE700BFFEE700BFF1
:100F7000FEE700BFFEE700BFFEE700BFFEE700BFE1
:100F8000FEE700BFFEE700BFFEE700BFFEE700BFD1
:100F9000FEE700BFFEE700BFFEE700BFFEE700BFC1
:100FA000FEE700BFFEE700BFFEE700BFFEE700BFB1
:100FB000FEE700BFFEE700BFFEE700BFFEE700BFA1
:100FC000FEE700BFFEE700BFFEE700BFFEE700BF91
:100FD000FEE700BFFEE700BFFEE700BFFEE700BF81
:100FE000FEE700BFFEE700BFFEE700BFFEE700BF71
:100FF000FEE700BFFEE700BFFEE700BFFEE700BF61
:10100000FEE700BF00B585B0019000238DF80F30DA
:10101000002005F0C3F903460293029B002B01D187
:1010200000230CE0019800F059F903468DF80F30C9
:101030009DF90F30002B01D0002300E0029B1846E1
:1010400005B05DF804FB00BF88B00190234BD3F8D6
:101050008830C3F30E0301330593204BD3F8883057
:101060001B0CDBB2013304931C4BD3F80431DBB20D
:1010700001330393194BD3F80C3103F003030293AC
:10108000029B012B04D0022B06D0154B079307E0DF
:10109000144B1B68079303E04FF40043079300BF12
:1010A0000E4BD3F888301B0E03F00303032B0CD137
:1010B000079A049BB2FBF3F3059A02FB03F35A0071
:1010C000039BB2FBF3F3069304E0079A039BB2FB86
:1010D000F3F30693069B184608B0704700C00F4014
:1010E00000093D000400001084B0039002910192B9
:1010F000029B1E2B19D91949184BD3F8AC31029A0F
:10110000203A104603228240D2431340C1F8AC314A
:101110001249124BD3F8AC21029B203B1846019B8D
:1011200083401343C1F8AC3116E00C490B4BD3F8A4
:10113000A831029A032000FA02F2D2431340C1F808
:10114000A8310648054BD3F8A821029B019901FA62
:1011500003F31343C0F8A83104B0704700C00F4038
:1011600000B587B0019000911B4A03AB106818606E
:101170000198FFF769FF0490009B1E2B10D9174BB5
:10118000D3F8AC31009A203A114603228A4013402A
:101190000593009B203B1A46059BD34005930DE029
:1011A0000E4BD3F8A831009A032101FA02F2134042
:1011B0000593009B059A22FA03F3059303AA059B66
:1011C00013441B781A46049BB3FBF2F30493049B6D
:1011D000184607B05DF804FB9466000000C00F409D
:1011E00000B587B00390029101920093344BD3F87D
:1011F00088300593324B2022C3F8A02100BF304B2A
:10120000D3F8A03103F04003002BF8D0059B03F086
:101210000073002B09D02A4A294BD3F8803023F0E1
:101220000103C2F8803000F04DF8059B03F0807395
:10123000002B09D0224A224BD3F8803023F002033E
:10124000C2F8803000F03EF81D4A009BC2F80C3115
:101250001B49039B013B1A04029B013B1343C1F84A
:10126000843000F02FF8164B0122C3F8802000F0E4
:1012700029F8134A019B013BC2F80431104B0022AC
:10128000C3F8A8210E4B0022C3F8AC2100BF0C4BC1
:10129000D3F8883003F08063002BF8D0084B03228A
:1012A000C3F8802000F00EF8054BD3F88830059382
:1012B0000023059300235BB2184607B05DF804FBDA
:1012C00000C00F40044BAA22C3F88C20024B5522C9
:1012D000C3F88C20704700BF00C00F4000B58BB032
:1012E00001900023079300238DF81B30019B5B685E
:1012F0002C4A1360019B1B682B4AB2FBF3F3059346
:10130000019B1B68059A02FB03F2019B5B685B0073
:10131000B2FBF3F30493049B089316E0019B5B6814
:10132000224AA2FB03239B0C089AB3FBF2F2089912
:1013300001FB02F29B1A002B04D1089B09930123A5
:1013400007930BE0089B01330893019B5B68174AE6
:10135000A2FB03239A0C089B9A42DFD2079B002B27
:1013600001D1FE2318E0019B1B68059A02FB03F3E1
:10137000099A02FB03F30E4AA2FB03235B0D0393BE
:10138000019B1B7A09980399059AFFF729FF0346E9
:101390008DF81B309DF81B305BB218460BB05DF822
:1013A00004FB00BF0400001000A3E11183DE1B4317
:1013B000819F5E1600B589B0019000238DF81E3024
:1013C00000238DF81F3000230693019B9B78039325
:1013D000019BDB780493019B1B790593019B1B7890
:1013E0008DF80830019B5B788DF8093002AB184608
:1013F000FEF7E4FF03468DF81E309DF91E30002BEA
:1014000002D09DF81E305FE0019B5B79012B53D128
:10141000019B1B78022B05D0019B1B78002B01D070
:10142000FF2351E0019B1B78022B05D1019B5B78C8
:101430000D2B01D9FF2347E0019B1B78002B0DD119
:10144000019B5B780C2B07D0019B5B780D2B03D0A5
:10145000019B5B780E2B01D1FF2335E0019BDB78EC
:10146000032B01D9FF232FE000238DF81F301CE050
:101470009DF91F30174AD35C002B0FD19DF81F2018
:10148000154B1A709DF91F30124A0121D1549DF954
:101490001F30019A9179114AD1540AE09DF81F300A
:1014A000DBB20133DBB28DF81F309DF91F30292BE1
:1014B000DEDD0B4B01221A700A4B1B78013BDAB2BE
:1014C000084B1A709DF81E305BB2184609B05DF8E3
:1014D00004FB00BFDC020010D8020010080000105E
:1014E0000603001084C0072082B00190019B1B7985
:1014F0005A01074B13441A46019B5B791946012395
:101500008B40136000235BB2184602B0704700BFE7
:1015100018C0092082B00190019B1B795A01074B2A
:1015200013441A46019B5B79194601238B401360D3
:1015300000235BB2184602B0704700BF1CC00920F0
:1015400084B00190019B1B795A010A4B13441B681C
:101550000393019B5B791A46012303FA02F2039B72
:101560001340019A52791341DBB25BB2184604B0C2
:10157000704700BF14C0092082B001900B468DF85F
:1015800003309DF80330002B17D0019B1B7903F12A
:10159000807303F59C435B011946019B1B7903F1A2
:1015A000807303F59C435B011B68019A52791046D6
:1015B0000122824013430B6017E0019B1B7903F16A
:1015C000807303F59C435B011946019B1B7903F172
:1015D000807303F59C435B011B68019A52791046A6
:1015E00001228240D24313400B6000235BB21846B5
:1015F00002B07047014B1B781846704784C0072023
:1016000084B0019000238DF80F30019B1B79022BD1
:1016100005D0019B1B79002B01D0FD239DE0002309
:101620008DF80F3090E09DF80F204E4913465B0077
:1016300013449B000B445A78019B5B799A427ED1FC
:10164000019B1B79002B02D0022B3CD077E09DF848
:101650000F30454AD35C002B09D14449434B5B69A9
:10166000019A527910460122824013434B619DF842
:101670000F303D4AD35C012B09D13C493B4B1B69E0
:10168000019A527910460122824013430B619DF862
:101690000F30354AD35C022B14D13449334B5B698C
:1016A000019A527910460122824013434B612F491F
:1016B0002E4B1B69019A5279104601228240134336
:1016C0000B613CE03BE09DF80F30274AD35C002BD8
:1016D00009D12649254B5B6B019A527910460122AC
:1016E000824013434B639DF80F301F4AD35C012B9C
:1016F00009D11E491D4B1B6B019A527910460122DC
:10170000824013430B639DF80F30174AD35C022BC2
:1017100014D11649154B5B6B019A52791046012280
:10172000824013434B631149104B1B6B019A527952
:1017300010460122824013430B63FFE700BF9DF870
:101740000F3001338DF80F309DF80F30292B7FF6C5
:101750006AAF074B01221A7000235BB2184604B02F
:10176000704700BFE00000100800001080800240B9
:101770003200001082B00190034B00221A70002347
:101780005BB2184602B070473200001084B001907E
:10179000009100238DF80F3000238DF80F3018E0F2
:1017A0009DF80F20114913465B0013449B000B4426
:1017B0005A78019B5B799A4206D19DF80F300C490B
:1017C000009A41F8232008E09DF80F3001338DF88E
:1017D0000F309DF80F30292BE2D9064B01221A70E9
:1017E00000235BB2184604B0704700BFE000001051
:1017F00034000010DC00001084B0019000238DF84C
:101800000F30174B1B78012B01D1FF2324E000235D
:101810008DF80F3018E09DF80F20124913465B0039
:1018200013449B000B445A78019B5B799A4206D182
:101830009DF80F300C4A002142F8231008E09DF873
:101840000F3001338DF80F309DF80F30292BE2D97E
:10185000034B00221A7000235BB2184604B0704795
:10186000DC000010E00000103400001000B585B06E
:10187000019000238DF80F30FFF7BCFE0346002BCC
:1018800026D0082004F08AFD03460293029B002B19
:1018900001D100231DE0019B1A78029B1A71019B64
:1018A0005A78029B5A71019B9A78029B9A71029B0B
:1018B00000221A600198FFF77DFD03468DF80F3076
:1018C0009DF90F30002B01D0002302E0029B00E0C5
:1018D0000023184605B05DF804FB00BF00B585B0D5
:1018E000019000238DF80F30019B1B68002B06D15F
:1018F0000198FFF7F9FD03468DF80F3007E0019BD3
:101900001B685B680198984703468DF80F309DF877
:101910000F305BB2184605B05DF804FB00B585B02A
:10192000019000238DF80F30019B1B68002B06D11E
:101930000198FFF7EFFD03468DF80F3007E0019B9C
:101940001B689B680198984703468DF80F309DF8F7
:101950000F305BB2184605B05DF804FB00B585B0EA
:10196000019000238DF80F30019B1B68002B06D1DE
:101970000198FFF7E5FD03468DF80F3007E0019B66
:101980001B68DB680198984703468DF80F309DF877
:101990000F305BB2184605B05DF804FB00B585B0AA
:1019A00001900B468DF8033000238DF80F30019B1A
:1019B0001B68002B09D19DF8033001981946FFF7E9
:1019C000DBFD03468DF80F300AE0019B1B681B69A5
:1019D0009DF8032001981146984703468DF80F3073
:1019E0009DF80F305BB2184605B05DF804FB00BFF0
:1019F00000B583B000238DF80730FFF7FBFD0346E9
:101A00008DF807309DF80730184603B05DF804FBE9
:101A100000B585B00190019B5B690198984703462A
:101A20008DF80F309DF80F30184605B05DF804FBB7
:101A300000B589B00190009100238DF81F30009B04
:101A40001A78019B1A71009B1B78012B09D1009B0E
:101A50001B781A46524B53F822301A46019B9A6063
:101A600008E0009B1B781A464D4B53F822301A466B
:101A7000019B9A60019B1B7919464A4A019B42F8D7
:101A80002130009B5A79019B5A7301230393002351
:101A9000049300230593009B1B691B788DF8083085
:101AA000009B1B695B788DF809309DF80830002B8E
:101AB00007D09DF80830022B03D09DF80830042B86
:101AC00018D19DF808305B08DBB29DF8092011465B
:101AD000354A5B010B4413441B78069302AB18464E
:101AE000FEF76CFC03468DF81F309DF91F30002B6C
:101AF00002D103E0FF234DE0FF234BE000230393DB
:101B00000023049300230593009B1B699B788DF8A9
:101B10000830009B1B69DB788DF809309DF8083090
:101B2000002B07D09DF80830022B03D09DF8083019
:101B3000042B18D19DF808305B08DBB29DF8092012
:101B40001146194A5B010B4413441B78069302AB00
:101B50001846FEF733FC03468DF81F309DF91F3001
:101B6000002B02D103E0FF2314E0FF2312E00098D2
:101B7000019900F043FB03468DF81F309DF91F309B
:101B8000002B01D0FF2305E0084B1B68013B074AEF
:101B9000136000235BB2184609B05DF804FB00BF78
:101BA000B8C0072008030010E4660000C8C0072082
:101BB00082B00190019B1B791A460C4B002199546D
:101BC000019B00221A730A49094BD3F8C420019BD8
:101BD0001B791846074B53F82030DB431340C1F8FC
:101BE000C43000235BB2184602B0704718030010DF
:101BF00000C00F4098C0072082B010B586B0039097
:101C0000029101920993039B1B7B002B02D06FF082
:101C100007037EE0039B01221A73039B5B7B002B6F
:101C200044D0039802F010FE04903D4B1A68049BC8
:101C3000D21A019B9A4205D2039B00221A736FF0BD
:101C4000050366E0002305930CE0039B1969029AE3
:101C5000059B13441B780846194602F0B9FF059B03
:101C600001330593059A019B9A42EED3039802F043
:101C7000EBFD03461A46019B9A4246D1039B1B7912
:101C8000012B09D1039B9C68039B1B69184602F03A
:101C9000CBFF0346237038E0039B9C68039B1B69C2
:101CA000184602F0C1FF034623702EE0002305937F
:101CB00027E0039B1B79012B10D1039B9B680299A2
:101CC000059A0A4412781A7000BF039B9B681B7D1B
:101CD000DBB203F02003002BF7D00FE0039B9B68DF
:101CE0000299059A0A4412781A7000BF039B9B68F8
:101CF0001B7DDBB203F02003002BF7D0059B0133E3
:101D00000593059A019B9A42D3D3039B00221A7331
:101D10000023184606B0BDE8104002B0704700BF6F
:101D20002403001010B588B003900291694681E841
:101D30000C00039B1B7B002B02D06FF0070386E097
:101D4000039B01221A73039B5B7B002B4AD00398F1
:101D500002F07AFD0690029803F06EF805903D4B74
:101D60001A68069BD21A059B9A4205D2039B002251
:101D70001A736FF005036AE0002307930CE0039BDE
:101D80001969029A079B13441B780846194602F00A
:101D90001FFF079B01330793029A079B13441B788D
:101DA000002BECD1039802F04FFD03461A46059B29
:101DB0009A4248D1039B1B79012B09D1039B9C6854
:101DC000039B1B69184602F02FFF034623703AE07D
:101DD000039B9C68039B1B69184602F025FF034682
:101DE000237030E00023079327E0039B1B79012B2E
:101DF00010D1039B9B680299079A0A4412781A70C3
:101E000000BF039B9B681B7DDBB203F02003002B0C
:101E1000F7D00FE0039B9B680299079A0A44127857
:101E20001A7000BF039B9B681B7DDBB203F020038D
:101E3000002BF7D0079B01330793029A079B1344AB
:101E40001B78002BD1D1039B00221A730023184664
:101E500008B010BD2403001082B010B586B0039006
:101E60000291019209930023059300230493039B9D
:101E70001B7B002B02D06FF0070365E0039B012260
:101E80001A7300230493039B5B7B002B21D0002358
:101E9000059319E0039B5B69184602F0F5FE0346C3
:101EA000012B01D100BF4BE0029A059BD418039B84
:101EB0005B69184602F0B8FE03462370049B0133A9
:101EC0000493059B01330593059A019B9A42E1D344
:101ED00036E0002305932FE0039B1B79012B14D1DF
:101EE00000BF039B9B681B7DDBB203F00103002B4B
:101EF000F7D0029A059B1344039A92681278D2B2E3
:101F00001A70049B0133049313E000BF039B9B688A
:101F10001B7DDBB203F00103002BF7D0029A059B77
:101F20001344039A92681278D2B21A70049B013358
:101F30000493059B01330593059A019B9A42CBD3E9
:101F4000039B00221A73049B184606B0BDE810409C
:101F500002B07047014B1B6818467047C8C0072085
:101F600000B583B00190019B5B69184602F028FE22
:101F70000346184603B05DF804FB00BF00B583B00C
:101F80000190019B5B69184602F072FE00235BB270
:101F9000184603B05DF804FB00B583B00190019BC7
:101FA0001B69184602F00CFE0346184603B05DF8A4
:101FB00004FB00BF00B583B00190019B1B6918466C
:101FC00002F056FE00235BB2184603B05DF804FB36
:101FD00010B588B00390029101920093029B1A0100
:101FE000039BB3FBF2F102FB01F29B1A002B0BD116
:101FF000019B01221A70009B00221A70029B1B0198
:10200000039AB2FBF3F3E6E04FF07F530793039894
:1020100003F060FF0446029B1B01184603F05AFFC1
:1020200003461846079903F0ADFF034620461946BC
:1020300004F05CF80346184604F090F90346ADF846
:102040001630039803F046FF0446BDF81630029A96
:1020500002FB03F31B01184603F03CFF0346204636
:10206000194604F043F803460493049803F03EFB3A
:1020700002460B461046194659A3D3E9002303F044
:1020800005FE0346002B14D0079803F02FFB0246F1
:102090000B461046194654A3D3E9002303F0C8F9B0
:1020A00002460B461046194603F00EFE0346079300
:1020B00029E0049803F01AFB02460B461046194625
:1020C0004BA3D3E9002303F0EBFD0346002B14D010
:1020D000079803F00BFB02460B461046194642A335
:1020E000D3E9002303F0A2F902460B461046194635
:1020F00003F0EAFD0346079305E0049B079300BF46
:10210000002306935DE082E73B4A069B52F833309A
:102110001846079904F0E8F80346002B4ED0069BBA
:10212000002B0ED1344A069BDB0013445A79019BE5
:102130001A70314A069BDB0013441A79009B1A700F
:1021400039E02D4A069B52F833301846079903F0C0
:102150000FFE03461C46069B013B274A52F83330CC
:102160000798194603F004FE03462046194604F07A
:10217000B1F80346002B0ED01F4A069BDB00134428
:102180005A79019B1A701C4A069BDB0013441A798A
:10219000009B1A700FE0069B013B174ADB001344BB
:1021A0005A79019B1A70069B013B134ADB001344CA
:1021B0001A79009B1A70BDF816300CE0069B0133AB
:1021C0000693069B472B9FD9019B00221A70009B08
:1021D00000221A700023184608B010BDAFF300802B
:1021E0009A9999999999F13F9A9999999999B93F99
:1021F000666666666666FE3FCCC0072000B587B09F
:10220000019000919C499C4BD3F8C420019B1B7802
:1022100018469A4B53F820301343C1F8C430019B41
:102220001B781A46964B53F822300020194600229C
:10223000FEF75AFF019B9B78053B924A52F82330E8
:1022400003F00302019B1B79013B8F4951F82330B6
:1022500003F001039B001A43019BDB7819468B4B6B
:1022600053F8213003F00703DB00134343F08003EE
:102270000593019B1B78012B05D1009B9B68059A58
:10228000D2B21A7304E0009B9B68059AD2B21A730B
:10229000019B1B781A467A4B53F8223000201946CE
:1022A000FEF75EFF0490019B5B781A46784B53F86B
:1022B00022100DF10A020DF109030498FFF788FEC0
:1022C00003460393039B002B01D1FD23CFE0019B29
:1022D0001B78012B17D1009B9B68039AD2B21A700E
:1022E000009B9B68039A120AD2B21A71009B9B68EA
:1022F0009DF8092002F00F019DF80A201201D2B2C8
:102300000A439A621BE0009B9B68039AD2B21A7040
:10231000009B9B68039A120AD2B21A71009B9B68B9
:102320009DF80920D2B202F00F02D1B29DF80A2026
:102330001201D2B20A43D2B2D2B283F82820019B52
:102340001B78012B0AD1009B9B68009A9268127B34
:10235000D2B202F07F02D2B21A7309E0009B9B68EE
:10236000009A9268127BD2B202F07F02D2B21A7344
:10237000019B5B79012B70D1019B9B68454A1360DF
:10238000019BDB68444A1360434B1B68184604F00A
:1023900005F803461A46414B1A603E4B1B68184627
:1023A00003F0FCFF03461A463D4B1A603B4B1A688C
:1023B000394B1B68104600211A4602F0C5FD384B08
:1023C0001A68344B1B68104600211A4602F0BCFD07
:1023D000019B1B78012B04D1009B9B6803225A6050
:1023E00003E0009B9B6803225A60019B1B781A46FE
:1023F0002C4B53F82230DBB28DF80B302A499DF973
:102400000B305B099DF80B2002F01F02012000FA3F
:1024100002F241F82320224B1A681E4B1B6810461B
:10242000194602F095FB0246009B1A61009B1B694E
:10243000002B01D1FF231AE0184B1A68164B1B68BA
:102440001046194602F084FB0246009B5A61009B2D
:102450005B69002B01D1FF2309E0019B1B781A4621
:10246000124B01219954009B00221A7300235BB286
:10247000184607B05DF804FB00C00F4098C0072065
:10248000A8C00720D4660000CC660000B866000033
:102490009866000024030010280300101C0300109D
:1024A0002003001088C0072000E100E0180300109E
:1024B00010B582B0002301932D4B1B681B79012BB3
:1024C00005D12B4B1B689B689B68019304E0284B4C
:1024D0001B689B689B680193019B03F00403002B1E
:1024E0001AD0234B5B681B79012B06D1204B1B684C
:1024F0009B681B788DF8033005E01D4B1B689B68BB
:102500001B788DF803301A4B1B685A699DF803300D
:102510001046194602F05CFB019B03F00203002BFE
:1025200024D0134B1B681B69184602F0ADFB034611
:10253000012B1BD00E4B1B681B79012B0BD10C4BB5
:102540001B689C680A4B1B681B69184602F06CFBF1
:10255000034623700AE0064B1B689C68044B1B680B
:102560001B69184602F060FB0346237002B010BDE1
:102570000803001010B582B0002301932D4B5B6857
:102580001B79012B05D12B4B5B689B689B680193E2
:1025900004E0284B5B689B689B680193019B03F0F8
:1025A0000403002B1AD0234B5B681B79012B06D147
:1025B000204B5B689B681B788DF8033005E01D4B52
:1025C0005B689B681B788DF803301A4B5B685A690F
:1025D0009DF803301046194602F0FAFA019B03F009
:1025E0000203002B24D0134B5B681B69184602F0D2
:1025F0004BFB0346012B1BD00E4B5B681B79012B59
:102600000BD10C4B5B689C680A4B5B681B691846D6
:1026100002F00AFB034623700AE0064B5B689C68E5
:10262000044B5B681B69184602F0FEFA03462370F0
:1026300002B010BD0803001010B582B00023019352
:102640002D4B9B681B79012B05D12B4B9B689B68FD
:102650009B68019304E0284B9B689B689B680193EF
:10266000019B03F00403002B1AD0234B9B681B79BA
:10267000012B06D1204B9B689B681B788DF803309B
:1026800005E01D4B9B689B681B788DF803301A4B47
:102690009B685A699DF803301046194602F098FA73
:1026A000019B03F00203002B24D0134B9B681B6992
:1026B000184602F0E9FA0346012B1BD00E4B9B682B
:1026C0001B79012B0BD10C4B9B689C680A4B9B68B8
:1026D0001B69184602F0A8FA034623700AE0064B6D
:1026E0009B689C68044B9B681B69184602F09CFA27
:1026F0000346237002B010BD0803001010B582B06D
:10270000002301932D4BDB681B79012B05D12B4B4B
:10271000DB689B689B68019304E0284BDB689B683F
:102720009B680193019B03F00403002B1AD0234BF9
:10273000DB681B79012B06D1204BDB689B681B787B
:102740008DF8033005E01D4BDB689B681B788DF826
:1027500003301A4BDB685A699DF80330104619465E
:1027600002F036FA019B03F00203002B24D0134B36
:10277000DB681B69184602F087FA0346012B1BD061
:102780000E4BDB681B79012B0BD10C4BDB689C6873
:102790000A4BDB681B69184602F046FA03462370B1
:1027A0000AE0064BDB689C68044BDB681B69184633
:1027B00002F03AFA0346237002B010BD080300107D
:1027C00000B589B00190009100238DF81F30009B67
:1027D0001A78019B1A71009BDA7E019B1A73009B89
:1027E0001B781A463A4B53F822301A46019B9A60DE
:1027F000009B1B781946374A019B42F82130002381
:1028000003930023049300230593009B5B6A1B78CA
:102810008DF80830009B5B6A5B788DF809309DF875
:1028200008309DF8092011462B4A5B010B441344E4
:102830001B78069302AB1846FDF7C0FD03468DF8E2
:102840001F309DF91F30002B01D0FF233AE00123F8
:1028500003930023049300230593009B5B6A9B78FA
:102860008DF80830009B5B6ADB788DF809309DF8A5
:1028700008309DF809201146174A5B010B441344A8
:102880001B78069302AB1846FDF798FD03468DF8BA
:102890001F309DF91F30002B01D0FF2312E001985B
:1028A000009900F01DF803468DF81F309DF91F3088
:1028B000002B01D0FF2305E0084B1B68013B074AB2
:1028C000136000235BB2184609B05DF804FB00BF3B
:1028D00030C307202C030010446700003CC30720CE
:1028E00000B587B0019000917549754BD3F8C420AD
:1028F000009B1B781846734B53F820301343C1F8E4
:10290000C430009B1B781A466F4B53F822300020CE
:1029100019460122FEF7E8FB019B9B686C229A6135
:10292000009B9B7E012B07D1019B9B68019A9268BB
:10293000D26842F00102DA60019B9B68009A5289DA
:102940005200DA60019B9B68009A928952001A62D9
:10295000019B9B68009AD28952005A62019B9B6836
:10296000009A128A52009A62019B9B68009A528ACE
:102970001A63019B9B68009A928A5A63019B9B6829
:10298000009AD28A9A63019B9B68009A128BDA6341
:10299000009B1B781A464C4B53F8223000201946F6
:1029A000FEF7DEFB0590009B5B68059AB2FBF3F334
:1029B0000493019B9B68049A52081A61019B9B68CF
:1029C000019A9268126904998A1A5A61009BDB7E07
:1029D000012B5BD1009BDB69184603F0DFFC03464B
:1029E0001A463A4B1A60009B1B6A184603F0D6FC45
:1029F00003461A46364B1A60344B1A68009BDB6953
:102A0000104600211A4602F09FFA314B1A68009BCB
:102A10001B6A104600211A4602F096FA2B4B1A68E0
:102A2000009BDB691046194602F092F80246019BB2
:102A30001A61019B1B69002B01D1FF233AE0244B53
:102A40001A68009B1B6A1046194602F081F802467C
:102A5000019B5A61019B5B69002B01D1FF2329E097
:102A6000009B1B781A461B4B53F82230DBB28DF8C3
:102A70000E3019499DF90E305B099DF80E2002F0C9
:102A80001F02012000FA02F241F82320019B9B68FB
:102A900004221A60019B9B6840221A60019B9B687C
:102AA0009B688DF80F30009B1B781A460B4B012159
:102AB000995400235BB2184607B05DF804FB00BFD1
:102AC00000C00F4018C3072024C307203C03001098
:102AD000400300100CC3072000E100E038030010A1
:102AE00086B00390029101920023059300BF039BDF
:102AF0009B681B6803F00803002BF8D0039B9B68BE
:102B00005B688DF813309DF81330083BC02B00F242
:102B1000A38201A252F823F01D2E000059300000BC
:102B20005930000059300000593000005930000081
:102B300059300000593000001D2E000059300000AF
:102B40005930000059300000593000005930000061
:102B50005930000059300000312E0000593000007B
:102B60005930000059300000593000005930000041
:102B700059300000593000007B2E00005930000011
:102B80005930000059300000593000005930000021
:102B90005930000059300000312E0000593000003B
:102BA0005930000059300000593000005930000001
:102BB0005930000059300000992E000059300000B3
:102BC00059300000593000005930000059300000E1
:102BD00059300000593000007B2E000059300000B1
:102BE00059300000593000005930000059300000C1
:102BF0005930000059300000853000005930000085
:102C000059300000593000005930000059300000A0
:102C10005930000059300000F92E000059300000F2
:102C20005930000059300000593000005930000080
:102C30005930000059300000172F000059300000B3
:102C40005930000059300000593000005930000060
:102C50005930000059300000512F00005930000059
:102C60005930000059300000593000005930000040
:102C70005930000059300000853000005930000004
:102C80005930000059300000593000005930000020
:102C900059300000593000008530000059300000E4
:102CA0005930000059300000593000005930000000
:102CB00059300000593000008530000059300000C4
:102CC00059300000593000005930000059300000E0
:102CD00059300000593000008530000059300000A4
:102CE00059300000593000005930000059300000C0
:102CF0005930000059300000A52F00005930000065
:102D0000593000005930000059300000593000009F
:102D10005930000059300000F12F000059300000F8
:102D2000593000005930000059300000593000007F
:102D30005930000059300000A52F00005930000024
:102D4000593000005930000059300000593000005F
:102D50005930000059300000F12F000059300000B8
:102D6000593000005930000059300000593000003F
:102D70005930000059300000853000005930000003
:102D8000593000005930000059300000593000001F
:102D90005930000059300000073000005930000061
:102DA00059300000593000005930000059300000FF
:102DB0005930000059300000073000005930000041
:102DC00059300000593000005930000059300000DF
:102DD0005930000059300000073000005930000021
:102DE00059300000593000005930000059300000BF
:102DF00059300000593000004330000059300000C5
:102E0000593000005930000059300000593000009E
:102E1000593000005930000043300000039B9B688C
:102E2000934A12789A60039B9B6820229A612AE158
:102E3000059A019B9A420AD2039B9B680299059AC4
:102E40000A4412789A60059B013305931BE1039BAA
:102E50001B791A46874B9B5C012B03D1039B9B6814
:102E600010221A60039B9B6808229A61039B1B79BE
:102E70001A46814B002199540AE1039B9B68082262
:102E80009A61039B9B6810221A60039B1B791A4668
:102E9000794B00219954FBE0059A019B9A4215D188
:102EA000039B1B791A46734B9B5C012B03D1039B3D
:102EB0009B6810221A60039B9B6808229A61039BFF
:102EC0001B791A466C4B00219954E1E0039B1B7956
:102ED0001A46684B9B5C012B03D1039B9B68102215
:102EE0001A60039B9B6808229A61039B1B791A4610
:102EF000614B00219954CBE0039B9B6810221A6020
:102F0000039B9B6808229A61039B1B791A465A4BC4
:102F100000219954BCE0029A059B1344039A9268DD
:102F20009268D2B21A70059B01330593534B1B680C
:102F30000133524A1360524B1B685A1E4F4B1B6899
:102F40009A4204D8039B9B6804229A619BE09AE012
:102F5000039B9B6804221A60029A059B1344039A00
:102F600092689268D2B21A70444B1B680133434A8C
:102F70001360059B01330593039B1B791A463D4B58
:102F80009B5C012B03D1039B9B6810221A60039B5F
:102F90009B6808229A61039B1B791A46364B0021D5
:102FA000995475E0029A059B1344039A92689268BB
:102FB000D2B21A70059B01330593304B1B68013365
:102FC0002E4A13602D4B1A682D4B1B689A420ED166
:102FD000039B9B6804229A61039B9B6808229A6169
:102FE000039B1B791A46244B0021995450E04AE078
:102FF000039B9B6808229A61039B1B791A461E4B10
:103000000021995444E0059A019B9A420AD2039BFD
:103010009B680299059A0A4412789A60059B0133CD
:10302000059330E0039B9B6800229A60039B9B689A
:1030300008229A61039B1B791A460F4B0021995471
:1030400026E0039B9B6808229A61039B1B791A4622
:10305000094B002199541BE0039B9B6808229A614D
:10306000039B1B791A46044B0021995410E000BFC2
:103070004403001058030010540300104C030010C8
:103080004803001000BF039B9B6808229A612DE54E
:1030900006B0704784B00190019B1B791A46104B13
:1030A0009B5C012B01D0FF2316E0019B1B791A4684
:1030B0000C4B53F82230DBB28DF80F300A499DF9E2
:1030C0000F305B099DF80F2002F01F02012000FA6B
:1030D00002F241F8232000235BB2184604B0704787
:1030E000380300100CC3072000E100E084B0019019
:1030F000019B1B791A46114B9B5C012B01D0FF23CE
:1031000017E0019B1B791A460D4B53F82230DBB2B6
:103110008DF80F300B499DF90F305B099DF80F209A
:1031200002F01F02012000FA02F2203341F82320AE
:1031300000235BB2184604B0704700BF380300108C
:103140000CC3072000E100E000B587B003900193B5
:103150000B468DF80B3013468DF80A30039B1B7914
:103160001A46454B9B5C012B02D04FF0FF337EE0AB
:10317000039B1B791A46414B01219954039B1B7BEE
:10318000012B49D1002305930CE0039B1969019A97
:10319000059B13441B780846194601F019FD059B51
:1031A00001330593059A089B9A42EED39DF80B30A4
:1031B000012B15D1039B1B791946314A9DF8243008
:1031C00053549DF80A305B00DAB22E4B1A70039B01
:1031D0009B6804229A61039B9B6820221A6003E08B
:1031E000039B9B6804221A6000BF039B1B791A464D
:1031F000224B9B5C012BF8D0039B1B791A46224B78
:103200009B5C012B32D1039B1B791A461E4B00217C
:1032100099544FF0FF332AE09DF80B30012B15D164
:10322000039B1B791946164A9DF8243053549DF888
:103230000A305B00DAB2134B1A70039B9B680422BE
:103240009A61039B9B6820221A6003E0039B9B68A2
:1032500004221A6003980199089AFFF741FC039B26
:103260001B791A46054B9B5C012BF3D000231846B3
:1032700007B05DF804FB00BF3803001054030010D2
:1032800058030010440300105003001010B586B01E
:10329000039001930B468DF80B3013468DF80A30DE
:1032A000039B1B791A46634B9B5C012B02D04FF0AA
:1032B000FF33BBE0039B1B791A465F4B01219954F6
:1032C0005E4A089B1360039B1B7B012B6ED19DF80C
:1032D0000B30012B2CD1039B1B791946584A9DF8C2
:1032E000243053549DF80A305B00DAB2554B1A7003
:1032F000544B1B7843F00103DAB2524B1A70089B0F
:10330000012B04D9039B9B6804221A6003E0039BF2
:103310009B6804229A61039B9B6820221A6000BF6D
:10332000039B1B791A46444B9B5C012BF8D003E0AE
:10333000039B9B6804221A600023059315E0039BFE
:103340005B69184601F0A0FC0346012B00D110E098
:10335000019A059BD418039B5B69184601F064FC35
:1033600003462370059B01330593059A089B9A42F7
:10337000E5D39DF80B30012B06D1334B1B6804932A
:10338000314B00221A6001E0059B0493039B1B79DB
:103390001A462E4B9B5C012B47D1039B1B791A4687
:1033A0002A4B002199544FF0FF333FE09DF80B303A
:1033B000012B24D1039B1B791946214A9DF8243007
:1033C00053549DF80A305B00DAB21E4B1A701D4B45
:1033D0001B7843F00103DAB21A4B1A70089B012BD9
:1033E00004D9039B9B6804221A6003E0039B9B683B
:1033F00004229A61039B9B6820221A6003E0039BCE
:103400009B6804221A6003980199089AFFF768FBE9
:10341000039B1B791A46084B9B5C012BF3D00A4B8C
:103420001B680493084B00221A60049B184606B0E0
:1034300010BD00BF380300105403001048030010F3
:1034400058030010440300104C03001050030010F8
:1034500000B583B00190019B1B791A46084B9B5C19
:10346000012B02D04FF0FF3305E0019B5B6918464A
:1034700001F0A6FB0346184603B05DF804FB00BF4D
:103480003803001000B583B00190019B1B791A46E8
:10349000084B9B5C012B01D0FF2305E0019B5B697E
:1034A000184601F0E5FB00235BB2184603B05DF857
:1034B00004FB00BF3803001000B583B00190019BEE
:1034C0001B791A46084B9B5C012B02D04FF0FF334F
:1034D00005E0019B1B69184601F072FB0346184684
:1034E00003B05DF804FB00BF3803001000B583B0E3
:1034F0000190019B1B791A46084B9B5C012B01D064
:10350000FF2305E0019B1B69184601F0B1FB002376
:103510005BB2184603B05DF804FB00BF380300102F
:1035200082B00190019B1B791A460E4B9B5C012BCC
:1035300001D0FF2312E0019B9B6840229A610A4957
:10354000094BD3F8C420019B1B791846074B53F84D
:103550002030DB431340C1F8C43000235BB218466F
:1035600002B070473803001000C00F4018C3072096
:10357000024B1B68DBB21846704700BF3CC30720F4
:1035800010B582B000238DF80730D94B1B689B68BB
:103590005B688DF807309DF80730083BC02B00F2C0
:1035A000948201A252F823F0AD380000CB3A00001B
:1035B000CB3A0000CB3A0000CB3A0000CB3A0000F7
:1035C000CB3A0000CB3A0000AD380000CB3A000007
:1035D000CB3A0000CB3A0000CB3A0000CB3A0000D7
:1035E000CB3A0000CB3A0000C5380000CB3A0000CF
:1035F000CB3A0000CB3A0000CB3A0000CB3A0000B7
:10360000CB3A0000CB3A000033390000CB3A00003F
:10361000CB3A0000CB3A0000CB3A0000CB3A000096
:10362000CB3A0000CB3A0000C5380000CB3A00008E
:10363000CB3A0000CB3A0000CB3A0000CB3A000076
:10364000CB3A0000CB3A000033390000CB3A0000FF
:10365000CB3A0000CB3A0000CB3A0000CB3A000056
:10366000CB3A0000CB3A000033390000CB3A0000DF
:10367000CB3A0000CB3A0000CB3A0000CB3A000036
:10368000CB3A0000CB3A0000E93A0000CB3A000008
:10369000CB3A0000CB3A0000CB3A0000CB3A000016
:1036A000CB3A0000CB3A00009B390000CB3A000037
:1036B000CB3A0000CB3A0000CB3A0000CB3A0000F6
:1036C000CB3A0000CB3A0000C3390000CB3A0000EF
:1036D000CB3A0000CB3A0000CB3A0000CB3A0000D6
:1036E000CB3A0000CB3A0000013A0000CB3A000090
:1036F000CB3A0000CB3A0000CB3A0000CB3A0000B6
:10370000CB3A0000CB3A0000E93A0000CB3A000087
:10371000CB3A0000CB3A0000CB3A0000CB3A000095
:10372000CB3A0000CB3A0000E93A0000CB3A000067
:10373000CB3A0000CB3A0000CB3A0000CB3A000075
:10374000CB3A0000CB3A0000E93A0000CB3A000047
:10375000CB3A0000CB3A0000CB3A0000CB3A000055
:10376000CB3A0000CB3A0000E93A0000CB3A000027
:10377000CB3A0000CB3A0000CB3A0000CB3A000035
:10378000CB3A0000CB3A00005D3A0000CB3A000093
:10379000CB3A0000CB3A0000CB3A0000CB3A000015
:1037A000CB3A0000CB3A00005D3A0000CB3A000073
:1037B000CB3A0000CB3A0000CB3A0000CB3A0000F5
:1037C000CB3A0000CB3A00005D3A0000CB3A000053
:1037D000CB3A0000CB3A0000CB3A0000CB3A0000D5
:1037E000CB3A0000CB3A00005D3A0000CB3A000033
:1037F000CB3A0000CB3A0000CB3A0000CB3A0000B5
:10380000CB3A0000CB3A0000E93A0000CB3A000086
:10381000CB3A0000CB3A0000CB3A0000CB3A000094
:10382000CB3A0000CB3A0000773A0000CB3A0000D8
:10383000CB3A0000CB3A0000CB3A0000CB3A000074
:10384000CB3A0000CB3A0000773A0000CB3A0000B8
:10385000CB3A0000CB3A0000CB3A0000CB3A000054
:10386000CB3A0000CB3A0000773A0000CB3A000098
:10387000CB3A0000CB3A0000CB3A0000CB3A000034
:10388000CB3A0000CB3A0000AD3A0000CB3A000042
:10389000CB3A0000CB3A0000CB3A0000CB3A000014
:1038A000CB3A0000CB3A0000AD3A0000104B1B6849
:1038B0009B68104A12789A600D4B1B689B68202207
:1038C0009A6112E10A4B1B681B69184601F0DCF98A
:1038D0000346012B10D0064B1B689C68044B1B68E9
:1038E0001B69184601F0A0F90346A36020E000BF61
:1038F0002C030010440300107F4B1B681B791A46F1
:103900007E4B002199547C4B1B681B791A467C4BDB
:1039100000219954784B1B681B791A46794B9B5CA4
:10392000012B05D1744B1B689B6810221A60DCE0E8
:10393000DBE0714B1B681B69184601F0A5F90346D3
:10394000012B07D16C4B1B681B791A466B4B01216D
:10395000995406E0684B1B681B791A46674B012196
:103960009954654B1B681B69184601F081F9624B3D
:103970001B681B791A46624B002199545E4B1B68E9
:103980001B791A465F4B9B5C012B05D15A4B1B6878
:103990009B6810221A60A8E0A7E0574B1B681B79B0
:1039A0001A46564B01219954534B1B681B791A46F2
:1039B000534B00219954504B1B689B6810221A608E
:1039C00093E04D4B1B685A694B4B1B689B689B6887
:1039D000DBB21046194601F0FBF84B4B1B68013374
:1039E000494A1360494B1B685A1E474B1B689A4251
:1039F00005D8414B1B689B6804229A6175E074E00E
:103A00003D4B1B685A693C4B1B689B689B68DBB24B
:103A10001046194601F0DCF83B4B1B6801333A4A6B
:103A20001360354B1B681B791A46344B002199549F
:103A3000314B1B681B791A46314B002199542E4B90
:103A40001B681B791A462F4B9B5C012B05D12A4B17
:103A50001B689B6810221A6047E046E0264B1B68F3
:103A60005A69254B1B689B689B68DBB21046194658
:103A700001F0AEF839E0204B1B681B69184601F0D5
:103A800003F90346012B0BD01B4B1B689C681A4B98
:103A90001B681B69184601F0C7F80346A36024E0C1
:103AA000154B1B689B6800229A601EE0124B1B6836
:103AB0001B791A46114B002199540F4B1B681B7937
:103AC0001A460F4B002199540FE00B4B1B681B79D2
:103AD0001A460A4B01219954074B1B681B791A4659
:103AE000074B0021995400E000BF034B1B689B6803
:103AF00008229A6102B010BD2C0300105003001080
:103B000054030010580300104C0300104803001029
:103B100010B582B000238DF80730D94B5B689B68E5
:103B20005B688DF807309DF80730083BC02B00F22A
:103B3000948201A252F823F03D3E00005B40000059
:103B40005B4000005B4000005B4000005B40000009
:103B50005B4000005B4000003D3E00005B40000019
:103B60005B4000005B4000005B4000005B400000E9
:103B70005B4000005B400000553E00005B400000E1
:103B80005B4000005B4000005B4000005B400000C9
:103B90005B4000005B400000C33E00005B40000053
:103BA0005B4000005B4000005B4000005B400000A9
:103BB0005B4000005B400000553E00005B400000A1
:103BC0005B4000005B4000005B4000005B40000089
:103BD0005B4000005B400000C33E00005B40000013
:103BE0005B4000005B4000005B4000005B40000069
:103BF0005B4000005B400000C33E00005B400000F3
:103C00005B4000005B4000005B4000005B40000048
:103C10005B4000005B400000794000005B4000001A
:103C20005B4000005B4000005B4000005B40000028
:103C30005B4000005B4000002B3F00005B40000049
:103C40005B4000005B4000005B4000005B40000008
:103C50005B4000005B400000533F00005B40000001
:103C60005B4000005B4000005B4000005B400000E8
:103C70005B4000005B400000913F00005B400000A3
:103C80005B4000005B4000005B4000005B400000C8
:103C90005B4000005B400000794000005B4000009A
:103CA0005B4000005B4000005B4000005B400000A8
:103CB0005B4000005B400000794000005B4000007A
:103CC0005B4000005B4000005B4000005B40000088
:103CD0005B4000005B400000794000005B4000005A
:103CE0005B4000005B4000005B4000005B40000068
:103CF0005B4000005B400000794000005B4000003A
:103D00005B4000005B4000005B4000005B40000047
:103D10005B4000005B400000ED3F00005B400000A6
:103D20005B4000005B4000005B4000005B40000027
:103D30005B4000005B400000ED3F00005B40000086
:103D40005B4000005B4000005B4000005B40000007
:103D50005B4000005B400000ED3F00005B40000066
:103D60005B4000005B4000005B4000005B400000E7
:103D70005B4000005B400000ED3F00005B40000046
:103D80005B4000005B4000005B4000005B400000C7
:103D90005B4000005B400000794000005B40000099
:103DA0005B4000005B4000005B4000005B400000A7
:103DB0005B4000005B400000074000005B400000EB
:103DC0005B4000005B4000005B4000005B40000087
:103DD0005B4000005B400000074000005B400000CB
:103DE0005B4000005B4000005B4000005B40000067
:103DF0005B4000005B400000074000005B400000AB
:103E00005B4000005B4000005B4000005B40000046
:103E10005B4000005B4000003D4000005B40000054
:103E20005B4000005B4000005B4000005B40000026
:103E30005B4000005B4000003D400000104B5B68B1
:103E40009B68104A12789A600D4B5B689B68202231
:103E50009A6112E10A4B5B681B69184600F014FF77
:103E60000346012B10D0064B5B689C68044B5B68D3
:103E70001B69184600F0D8FE0346A36020E000BF8F
:103E80002C030010440300107F4B5B681B791A461B
:103E90007E4B002199547C4B5B681B791A467C4B06
:103EA00000219954784B5B681B791A46794B9B5CCF
:103EB000012B05D1744B5B689B6810221A60DCE013
:103EC000DBE0714B5B681B69184600F0DDFE0346C2
:103ED000012B07D16C4B5B681B791A466B4B012198
:103EE000995406E0684B5B681B791A46674B0121C1
:103EF0009954654B5B681B69184600F0B9FE624B2C
:103F00005B681B791A46624B002199545E4B5B68D3
:103F10001B791A465F4B9B5C012B05D15A4B5B68A2
:103F20009B6810221A60A8E0A7E0574B5B681B79DA
:103F30001A46564B01219954534B5B681B791A461C
:103F4000534B00219954504B5B689B6810221A60B8
:103F500093E04D4B5B685A694B4B5B689B689B6871
:103F6000DBB21046194600F033FE4B4B1B680133A1
:103F7000494A1360494B1B685A1E474B1B689A42BB
:103F800005D8414B5B689B6804229A6175E074E038
:103F90003D4B5B685A693C4B5B689B689B68DBB236
:103FA0001046194600F014FE3B4B1B6801333A4A99
:103FB0001360354B5B681B791A46344B00219954CA
:103FC000314B5B681B791A46314B002199542E4BBB
:103FD0005B681B791A462F4B9B5C012B05D12A4B42
:103FE0005B689B6810221A6047E046E0264B5B68DE
:103FF0005A69254B5B689B689B68DBB21046194683
:1040000000F0E6FD39E0204B5B681B69184600F0C4
:104010003BFE0346012B0BD01B4B5B689C681A4B85
:104020005B681B69184600F0FFFD0346A36024E0AF
:10403000154B5B689B6800229A601EE0124B5B6820
:104040001B791A46114B002199540F4B5B681B7961
:104050001A460F4B002199540FE00B4B5B681B79FC
:104060001A460A4B01219954074B5B681B791A4683
:10407000074B0021995400E000BF034B5B689B682D
:1040800008229A6102B010BD2C03001050030010EA
:1040900054030010580300104C0300104803001094
:1040A00010B582B000238DF80730D94B9B689B6810
:1040B0005B688DF807309DF80730083BC02B00F295
:1040C000948201A252F823F0CD430000EB4500009A
:1040D000EB450000EB450000EB450000EB45000020
:1040E000EB450000EB450000CD430000EB45000030
:1040F000EB450000EB450000EB450000EB45000000
:10410000EB450000EB450000E5430000EB450000F7
:10411000EB450000EB450000EB450000EB450000DF
:10412000EB450000EB45000053440000EB45000068
:10413000EB450000EB450000EB450000EB450000BF
:10414000EB450000EB450000E5430000EB450000B7
:10415000EB450000EB450000EB450000EB4500009F
:10416000EB450000EB45000053440000EB45000028
:10417000EB450000EB450000EB450000EB4500007F
:10418000EB450000EB45000053440000EB45000008
:10419000EB450000EB450000EB450000EB4500005F
:1041A000EB450000EB45000009460000EB45000030
:1041B000EB450000EB450000EB450000EB4500003F
:1041C000EB450000EB450000BB440000EB45000060
:1041D000EB450000EB450000EB450000EB4500001F
:1041E000EB450000EB450000E3440000EB45000018
:1041F000EB450000EB450000EB450000EB450000FF
:10420000EB450000EB45000021450000EB450000B8
:10421000EB450000EB450000EB450000EB450000DE
:10422000EB450000EB45000009460000EB450000AF
:10423000EB450000EB450000EB450000EB450000BE
:10424000EB450000EB45000009460000EB4500008F
:10425000EB450000EB450000EB450000EB4500009E
:10426000EB450000EB45000009460000EB4500006F
:10427000EB450000EB450000EB450000EB4500007E
:10428000EB450000EB45000009460000EB4500004F
:10429000EB450000EB450000EB450000EB4500005E
:1042A000EB450000EB4500007D450000EB450000BC
:1042B000EB450000EB450000EB450000EB4500003E
:1042C000EB450000EB4500007D450000EB4500009C
:1042D000EB450000EB450000EB450000EB4500001E
:1042E000EB450000EB4500007D450000EB4500007C
:1042F000EB450000EB450000EB450000EB450000FE
:10430000EB450000EB4500007D450000EB4500005B
:10431000EB450000EB450000EB450000EB450000DD
:10432000EB450000EB45000009460000EB450000AE
:10433000EB450000EB450000EB450000EB450000BD
:10434000EB450000EB45000097450000EB45000001
:10435000EB450000EB450000EB450000EB4500009D
:10436000EB450000EB45000097450000EB450000E1
:10437000EB450000EB450000EB450000EB4500007D
:10438000EB450000EB45000097450000EB450000C1
:10439000EB450000EB450000EB450000EB4500005D
:1043A000EB450000EB450000CD450000EB4500006B
:1043B000EB450000EB450000EB450000EB4500003D
:1043C000EB450000EB450000CD450000104B9B681D
:1043D0009B68104A12789A600D4B9B689B6820225C
:1043E0009A6112E10A4B9B681B69184600F04CFC6D
:1043F0000346012B10D0064B9B689C68044B9B68BE
:104400001B69184600F010FC0346A36020E000BFC3
:104410002C030010440300107F4B9B681B791A4645
:104420007E4B002199547C4B9B681B791A467C4B30
:1044300000219954784B9B681B791A46794B9B5CF9
:10444000012B05D1744B9B689B6810221A60DCE03D
:10445000DBE0714B9B681B69184600F015FC0346B6
:10446000012B07D16C4B9B681B791A466B4B0121C2
:10447000995406E0684B9B681B791A46674B0121EB
:104480009954654B9B681B69184600F0F1FB624B21
:104490009B681B791A46624B002199545E4B9B68BE
:1044A0001B791A465F4B9B5C012B05D15A4B9B68CD
:1044B0009B6810221A60A8E0A7E0574B9B681B7905
:1044C0001A46564B01219954534B9B681B791A4647
:1044D000534B00219954504B9B689B6810221A60E3
:1044E00093E04D4B9B685A694B4B9B689B689B685C
:1044F000DBB21046194600F06BFB4B4B1B680133D7
:10450000494A1360494B1B685A1E474B1B689A4225
:1045100005D8414B9B689B6804229A6175E074E062
:104520003D4B9B685A693C4B9B689B689B68DBB220
:104530001046194600F04CFB3B4B1B6801333A4ACE
:104540001360354B9B681B791A46344B00219954F4
:10455000314B9B681B791A46314B002199542E4BE5
:104560009B681B791A462F4B9B5C012B05D12A4B6C
:104570009B689B6810221A6047E046E0264B9B68C8
:104580005A69254B9B689B689B68DBB210461946AD
:1045900000F01EFB39E0204B9B681B69184600F0B9
:1045A00073FB0346012B0BD01B4B9B689C681A4B7B
:1045B0009B681B69184600F037FB0346A36024E0A4
:1045C000154B9B689B6800229A601EE0124B9B680B
:1045D0001B791A46114B002199540F4B9B681B798C
:1045E0001A460F4B002199540FE00B4B9B681B7927
:1045F0001A460A4B01219954074B9B681B791A46AE
:10460000074B0021995400E000BF034B9B689B6857
:1046100008229A6102B010BD2C0300105003001054
:1046200054030010580300104C03001048030010FE
:1046300000B585B0019000238DF80F30FDF78AFC9E
:104640000346002B1BD01C2001F0A8FE034602935A
:10465000029B002B01D1002312E0029B00221A6072
:1046600002980199FDF7E4F903468DF80F309DF9A2
:104670000F30002B01D0002302E0029B00E000235A
:10468000184605B05DF804FB00B585B00190002325
:104690008DF80F30019B1B68002B06D10198FDF7A8
:1046A00087FA03468DF80F3007E0019B1B689B6A71
:1046B0000198984703468DF80F309DF80F305BB294
:1046C000184605B05DF804FB82B010B588B00590BF
:1046D000049103920B9300230793059B1B68002B07
:1046E00009D10C9B00930B9B05980499039AFDF745
:1046F00083FA07900AE0059B1B685C680C9B00939B
:104700000B9B05980499039AA0470790079B1846AE
:1047100008B0BDE8104002B0704700BF10B586B0C9
:1047200003900291694681E80C0000230593039BE6
:104730001B68002B07D1039802996B460CCBFDF741
:10474000F1FA059008E0039B1B68DC680398029966
:104750006B460CCBA0470590059B184606B010BDD4
:1047600082B010B588B00590049103920B9300239A
:104770000793059B1B68002B09D10C9B00930B9B97
:1047800005980499039AFDF767FB07900AE0059BDB
:104790001B681C690C9B00930B9B05980499039A5A
:1047A000A0470790079B184608B0BDE8104002B02C
:1047B000704700BF00B583B000238DF80730FDF7C8
:1047C000C9FB03468DF807309DF80730184603B043
:1047D0005DF804FB00B585B0019000230393019BB5
:1047E0001B68002B04D10198FDF7BAFB039005E08C
:1047F000019B1B68DB69019898470390039B18464F
:1048000005B05DF804FB00BF00B585B00190002342
:104810008DF80F30019B1B68002B06D10198FDF726
:10482000ADFB03468DF80F3007E0019B1B689B69C9
:104830000198984703468DF80F309DF80F305BB212
:10484000184605B05DF804FB00B585B00190002363
:104850000393019B1B68002B04D10198FDF79CFB7F
:10486000039005E0019B1B685B6A019898470390E1
:10487000039B184605B05DF804FB00BF00B585B08A
:10488000019000238DF80F30019B1B68002B06D18F
:104890000198FDF78FFB03468DF80F3007E0019B71
:1048A0001B681B6A0198984703468DF80F309DF8E6
:1048B0000F305BB2184605B05DF804FB00B585B05B
:1048C000019000230393019B002B02D14FF0FF3393
:1048D00005E0019B5B69019898470390039B18468C
:1048E00005B05DF804FB00BF00B585B00190002362
:1048F0008DF80F30FEF73CFE0346002B18D01C202D
:1049000001F04CFD03460293029B002B01D10023D2
:104910000FE002980199FDF753FF03468DF80F3021
:104920009DF90F30002B01D0002302E0029B00E034
:104930000023184605B05DF804FB00BF30B58BB00E
:10494000079005930B468DF81B3013468DF81A30EF
:1049500000230993079B1B68002B15D19DF81B5062
:104960009DF81A400E9B00939DF83C30019302AADB
:1049700010AB93E8030082E803000798294622461B
:10498000059BFEF7E1FB0990099B18460BB030BD73
:1049900030B58BB0079005930B468DF81B3013464E
:1049A0008DF81A3000230993079B1B68002B15D143
:1049B0009DF81B509DF81A400E9B00939DF83C30CB
:1049C000019302AA10AB93E8030082E80300079862
:1049D00029462246059BFEF759FC0990099B18467B
:1049E0000BB030BD00B585B0019000238DF80F30BD
:1049F000019B1B68002B05D10198FEF74BFB03467A
:104A00008DF80F309DF80F305BB2184605B05DF899
:104A100004FB00BF00B585B0019000238DF80F3076
:104A2000019B1B68002B05D10198FEF75FFB034635
:104A30008DF80F309DF80F305BB2184605B05DF869
:104A400004FB00BF00B585B0019000230393019BD8
:104A50001B68002B03D10198FEF7FAFC0390039B1F
:104A6000184605B05DF804FB00B585B00190002341
:104A70008DF80F30019B1B68002B05D10198FEF7C4
:104A800001FD03468DF80F309DF80F305BB21846DC
:104A900005B05DF804FB00BF00B585B001900023B0
:104AA0000393019B1B68002B03D10198FEF704FDC3
:104AB0000390039B184605B05DF804FB00B585B074
:104AC000019000238DF80F30019B1B68002B05D14E
:104AD0000198FEF70BFD03468DF80F309DF80F305F
:104AE0005BB2184605B05DF804FB00BF00B585B0A9
:104AF000019000238DF80F30019B1B68002B05D11E
:104B00000198FEF70DFD03468DF80F309DF80F302C
:104B10005BB2184605B05DF804FB00BF00B583B07A
:104B200000238DF80730FEF723FD03468DF807308C
:104B30009DF80730184603B05DF804FB84B001907F
:104B400000238DF80F309DF80F30184604B07047E1
:104B500000B585B001900091182001F01FFC0346BC
:104B60000393039B002B01D100231DE0039B019ABB
:104B70005A60039B019A9A60039B019A1A60009BFA
:104B8000013B019A1A44039BDA60039B009A1A6165
:104B9000039B00225A61039B1A68039BDB689A42BD
:104BA00001D9002300E0039B184605B05DF804FB23
:104BB00082B00190019B1B69184602B0704700BF8C
:104BC00082B00190019B5B69184602B0704700BF3C
:104BD00082B001900B468DF80330019B5A69019B0E
:104BE0001B699A421AD2019B9B689DF803201A7098
:104BF000019B5B695A1C019B5A61019B9A68019B4E
:104C0000DB689A4204D1019B1A68019B9A6007E015
:104C1000019B9B685A1C019B9A6001E0002300E005
:104C20000123184602B0704782B00190019B5B6976
:104C3000002B01D1FF2318E0019B5B695A1E019BE9
:104C40005A61019B5A68019BDB689A4207D1019B1C
:104C50001A68019B5A60019BDB681B7805E0019B89
:104C60005B68591C019A51601B78184602B0704766
:104C700082B00190019B9A68019B5A60019B0022BF
:104C80005A6102B0704700BF82B00190019B5B691E
:104C9000002B0CBF01230023DBB2184602B0704783
:104CA00082B00190019B5A69019B1B699A422CBFFB
:104CB00001230023DBB2184602B070470000000059
:104CC00086B0019000910023ADF816300023ADF8B6
:104CD00014300023ADF8103000238DF80F30009B06
:104CE000002B01D100239EE0BDF810300133ADF858
:104CF00010304E4ABDF810301380019B002B28D095
:104D00004B4B00221A80494B00221A800023ADF839
:104D1000103010E0464B1B881A46454B1B8819463D
:104D2000019B0B441978434B9954414B1B88013329
:104D30009AB23F4B1A803E4B1B881A46019B134484
:104D40001B78002BE6D13A4B1B881A46394B0021C1
:104D5000995461E00023ADF81430BDF81030ADF87F
:104D60001630BDF81630334AD25CBDF814300099C5
:104D70000B441B789A4200D01CE0BDF8143001337C
:104D8000ADF81430BDF816300133ADF81630BDF86B
:104D90001630284AD35C002B00D10BE0BDF814304C
:104DA000009A13441B78002B03D101238DF80F3098
:104DB00000E0D6E79DF80F30012B1CD10023ADF8A1
:104DC00012300CE0BDF81020BDF812301344194A1F
:104DD0000021D154BDF812300133ADF81230BDF8C6
:104DE0001220BDF814309A42ECD3104B1B881A469F
:104DF000104B134417E0BDF810300133ADF81030FC
:104E00000B4B1B88BDF810209A4205D3074B1B881B
:104E10001A46084B134406E0BDF81030054AD35C2F
:104E2000002B97D10023184606B070475C04001091
:104E30005E0400105C03001084B001900023039313
:104E400002E0039B01330393019A039B13441B78F5
:104E5000002BF6D1039B184604B0704784B0019034
:104E60000091002303930AE0019A039B13440099E5
:104E7000039A0A4412781A70039B01330393009A31
:104E8000039B13441B78002BEED1039B184604B000
:104E9000704700BF00B585B0019000238DF80F303A
:104EA0000198FFF7C9FF0346DBB2013B8DF80E30D6
:104EB00021E09DF80F30019A13441B788DF80D30D6
:104EC0009DF80F30019A13449DF80E2001990A4471
:104ED00012781A709DF80E30019A13449DF80D2037
:104EE0001A709DF80F3001338DF80F309DF80E3099
:104EF000013B8DF80E309DF80F209DF80E309A4240
:104F0000D7D300235BB2184605B05DF804FB00BFA1
:104F100086B0039002910192002305930AE0039A60
:104F2000059B13440299059A0A4412781A70059B4E
:104F300001330593059A019B9A42F0D300235BB29B
:104F4000184606B0704700BF86B003900B4601922A
:104F50008DF80B300023059308E0039A059B13445A
:104F60009DF80B201A70059B01330593059A019B50
:104F70009A42F2D300235BB2184606B0704700BFD6
:104F800086B0039002910192002305930EE0039AEC
:104F9000059B13441A780299059B0B441B789A428F
:104FA00001D0002307E0059B01330593059A019B7F
:104FB0009A42ECD30123184606B0704730B589B049
:104FC000019000910023ADF81E300623ADF81C308F
:104FD0004FF00002864BCDE9042301984FF0000109
:104FE00001F06EF90346002B08D0009B5A1C00927A
:104FF0002D221A70019B83F00043019301984FF01A
:10500000000101F053F90346002B15D10CE0019883
:10501000784900F0B7FF03460193BDF81E309BB2FC
:10502000013B9BB2ADF81E3001984FF07E5101F06C
:1050300047F90346002BEAD10CE001986E4900F0D5
:10504000A1FF03460193BDF81E309BB201339BB212
:10505000ADF81E300198674901F046F90346002B70
:10506000EBD10123ADF81A3011E0DDE904015EA3B4
:10507000D3E9002300F08EFB02460B46CDE9042362
:10508000BDF81A309BB201339BB2ADF81A30BDF9AE
:105090001A20BDF91C309A42E7DB019800F026FB8C
:1050A00004460D46DDE904014FF00002534B00F0C9
:1050B00071FB02460B462046294600F0B9F902462C
:1050C0000B461046194600F0FFFD03460193019878
:1050D000484901F009F90346002B10D04FF07E53E8
:1050E0000193BDF81E309BB201339BB2ADF81E3068
:1050F000BDF81C309BB201339BB2ADF81C30BDF93A
:105100001E30002B20DA009B5A1C009230221A70AD
:10511000009B5A1C00922E221A704FF6FF73ADF8B6
:105120001A300BE0009B5A1C009230221A70BDF816
:105130001A309BB2013B9BB2ADF81A30BDF91A2070
:10514000BDF91E309A42EDDC0023ADF81A3039E08B
:10515000019801F0DDF80346ADF80E30009B5A1CB3
:105160000092BDF80E20D2B23032D2B21A70BDF920
:105170001A20BDF91E309A4204D1009B5A1C00929D
:105180002E221A70BDF90E30184600F0A7FE034615
:1051900002930298174900F0F5FE03460293019826
:1051A000144900F0EFFE034601930198029900F0C4
:1051B000DFFD03460193BDF81A309BB201339BB269
:1051C000ADF81A30BDF91A20BDF91C309A42BFDB88
:1051D000009B5A1C009200221A7000235BB21846F2
:1051E00009B030BDAFF30080000000A09999B93F2D
:1051F0000000F03F00002041CDCCCC3D0000E03F5E
:1052000084B001900091002303930CE0039BDA002B
:10521000039B5B001344019A12781344303B0393C1
:10522000019B01330193019B1B78002BEED1009B66
:10523000039A1A6000235BB2184604B0704700BF9F
:1052400010B584B0019000914FF0000303930198D2
:10525000FFF7F2FD0346ADF8083000238DF80B3060
:10526000019B1B782D2B03D0019B1B782B2B03D18B
:1052700001238DF80A3002E000238DF80A302CE07B
:105280009DF80A30019A13441B782E2B0AD1BDF8E1
:105290000830DAB29DF80A30D31ADBB2013B8DF840
:1052A0000B3015E003981F4900F06CFE03461C46C6
:1052B0009DF80A30019A13441B78303B184600F0E1
:1052C0000DFE03462046194600F054FD03460393A5
:1052D0009DF80A3001338DF80A309DF80A309BB2F0
:1052E000BDF808209A42CBD805E003980D4900F09C
:1052F000FDFE034603939DF80B305A1E8DF80B20DC
:10530000002BF2D1019B1B782D2B03D1039B83F043
:1053100000430393009B039A1A6000235BB2184674
:1053200004B010BD0000204100B585B0019000918F
:1053300000230393019B0293019B002B02DA019B44
:105340005B420193039B5A1C03921A46009B9818D8
:10535000019A194B83FB02139910D317C91A0B46F4
:105360009B000B445B00D11ACBB23033DBB203702D
:10537000019B114A82FB03129210DB17D31A01938F
:10538000019B002BDEDC029B002B07DA039B5A1CDF
:1053900003921A46009B13442D221A70039B009A15
:1053A000134400221A700098FFF774FD00235BB2CB
:1053B000184605B05DF804FB6766666686B0019026
:1053C0000091002305930023049302E0059B013321
:1053D0000593019A059B13441B78002BF6D102E03C
:1053E000049B01330493009A049B13441B78002B05
:1053F000F6D1002303930CE0059A039B1344019A12
:1054000013440099039A0A4412781A70039B0133DB
:105410000393039A049B9A42EED30023184606B0E6
:10542000704700BF81F0004102E000BF83F00043FD
:1054300030B54FEA41044FEA430594EA050F08BF2F
:1054400090EA020F1FBF54EA000C55EA020C7FEAF3
:10545000645C7FEA655C00F0E2804FEA5454D4EB70
:105460005555B8BF6D420CDD2C4480EA020281EA3A
:10547000030382EA000083EA010180EA020281EA72
:105480000303362D88BF30BD11F0004F4FEA0131C4
:105490004FF4801C4CEA113102D0404261EB4101D3
:1054A00013F0004F4FEA03334CEA133302D0524259
:1054B00063EB430394EA050F00F0A780A4F1010415
:1054C000D5F1200E0DDB02FA0EFC22FA05F280184F
:1054D00041F1000103FA0EF2801843FA05F3594135
:1054E0000EE0A5F120050EF1200E012A03FA0EFCB4
:1054F00028BF4CF0020C43FA05F3C01851EBE371DE
:1055000001F0004507D54FF0000EDCF1000C7EEBFA
:1055100000006EEB0101B1F5801F1BD3B1F5001F38
:105520000CD349085FEA30004FEA3C0C04F1010457
:105530004FEA445212F5800F80F09A80BCF1004F80
:1055400008BF5FEA500C50F1000041EB045141EA02
:10555000050130BD5FEA4C0C404141EB010111F403
:10556000801FA4F10104E9D191F0000F04BF0146AE
:105570000020B1FA81F308BF2033A3F10B03B3F18C
:1055800020020CDA0C3208DD02F1140CC2F10C021C
:1055900001FA0CF021FA02F10CE002F11402D8BF7A
:1055A000C2F1200C01FA02F120FA0CFCDCBF41EA46
:1055B0000C019040E41AA2BF01EB0451294330BD15
:1055C0006FEA04041F3C1CDA0C340EDC04F11404F2
:1055D000C4F1200220FA04F001FA02F340EA0300C9
:1055E00021FA04F345EA030130BDC4F10C04C4F10F
:1055F000200220FA02F001FA04F340EA03002946EF
:1056000030BD21FA04F0294630BD94F0000F83F438
:10561000801306BF81F480110134013D4EE77FEA1B
:10562000645C18BF7FEA655C29D094EA050F08BF67
:1056300090EA020F05D054EA000C04BF1946104648
:1056400030BD91EA030F1EBF0021002030BD5FEA8C
:10565000545C05D14000494128BF41F0004130BDB4
:1056600014F580043CBF01F5801130BD01F0004508
:1056700045F0FE4141F470014FF0000030BD7FEA7B
:10568000645C1ABF194610467FEA655C1CBF0B4676
:10569000024650EA013406BF52EA033591EA030F8D
:1056A00041F4002130BD00BF90F0000F04BF002185
:1056B000704730B54FF4806404F132044FF00005B8
:1056C0004FF0000150E700BF90F0000F04BF002131
:1056D000704730B54FF4806404F1320410F0004597
:1056E00048BF40424FF000013EE700BF42004FEA92
:1056F000E2014FEA31014FEA02701FBF12F07F430F
:1057000093F07F4F81F06051704792F0000F14BF0B
:1057100093F07F4F704730B54FF4607401F000454F
:1057200021F0004120E700BF50EA010208BF7047A6
:1057300030B54FF000050AE050EA010208BF70479B
:1057400030B511F0004502D5404261EB41014FF404
:10575000806404F132045FEA915C3FF4DCAE4FF008
:1057600003025FEADC0C18BF03325FEADC0C18BFEF
:10577000033202EBDC02C2F1200300FA03FC20FA40
:1057800002F001FA03FE40EA0E0021FA02F114448D
:10579000C1E600BF70B54FF0FF0C4CF4E06C1CEAA2
:1057A00011541DBF1CEA135594EA0C0F95EA0C0F17
:1057B00000F0DEF82C4481EA030621EA4C5123EA8A
:1057C0004C5350EA013518BF52EA033541F48011B9
:1057D00043F4801338D0A0FB02CE4FF00005E1FB6C
:1057E00002E506F00042E0FB03E54FF00006E1FBB6
:1057F00003569CF0000F18BF4EF0010EA4F1FF04F9
:10580000B6F5007F64F5407404D25FEA4E0E6D4138
:1058100046EB060642EAC62141EA55514FEAC52049
:1058200040EA5E504FEACE2EB4F1FD0C88BFBCF5C5
:10583000E06F1ED8BEF1004F08BF5FEA500E50F176
:10584000000041EB045170BD06F0004646EA01013C
:1058500040EA020081EA0301B4EB5C04C2BFD4EB6E
:105860000C0541EA045170BD41F480114FF0000E67
:10587000013C00F3AB8014F1360FDEBF002001F0D5
:10588000004170BDC4F10004203C35DA0C341BDC4F
:1058900004F11404C4F1200500FA05F320FA04F021
:1058A00001FA05F240EA020001F0004221F0004155
:1058B00010EBD37021FA04F642EB06015EEA430EC8
:1058C00008BF20EAD37070BDC4F10C04C4F12005F8
:1058D00000FA04F320FA05F001FA04F240EA0200AB
:1058E00001F0004110EBD37041F100015EEA430E7C
:1058F00008BF20EAD37070BDC4F1200500FA05F29C
:105900004EEA020E20FA04F301FA05F243EA02031A
:1059100021FA04F001F0004121FA04F220EA020029
:1059200000EBD3705EEA430E08BF20EAD37070BD6F
:1059300094F0000F0FD101F00046400041EB01014F
:1059400011F4801F08BF013CF7D041EA060195F031
:10595000000F18BF704703F00046520043EB0303EB
:1059600013F4801F08BF013DF7D043EA06037047D8
:1059700094EA0C0F0CEA135518BF95EA0C0F0CD0E3
:1059800050EA410618BF52EA4306D1D181EA030129
:1059900001F000414FF0000070BD50EA410606BF23
:1059A0001046194652EA430619D094EA0C0F02D168
:1059B00050EA013613D195EA0C0F05D152EA0336AD
:1059C0001CBF104619460AD181EA030101F00041CB
:1059D00041F0FE4141F470014FF0000070BD41F014
:1059E000FE4141F4780170BD70B54FF0FF0C4CF4EE
:1059F000E06C1CEA11541DBF1CEA135594EA0C0F0D
:105A000095EA0C0F00F0A7F8A4EB050481EA030E59
:105A100052EA03354FEA013100F088804FEA033340
:105A20004FF0805545EA131343EA12634FEA02220E
:105A300045EA111545EA10654FEA00260EF00041CF
:105A40009D4208BF964244F1FD0404F5407402D221
:105A50005B084FEA3202B61A65EB03055B084FEAB2
:105A600032024FF480104FF4002CB6EB020E75EBAF
:105A7000030E22BFB61A754640EA0C005B084FEAD7
:105A80003202B6EB020E75EB030E22BFB61A754654
:105A900040EA5C005B084FEA3202B6EB020E75EB9F
:105AA000030E22BFB61A754640EA9C005B084FEA17
:105AB0003202B6EB020E75EB030E22BFB61A754624
:105AC00040EADC0055EA060E18D04FEA051545EA13
:105AD00016754FEA06164FEAC30343EA52734FEABC
