:1000000000400820C10E0000290F00002D0F000045
:10001000310F0000350F0000390F00000000000014
:100020000000000000000000000000003D0F000084
:10003000410F000000000000450F0000490F0000C4
:100040004D0F0000510F0000550F0000590F000028
:100050005D0F0000792400003D250000012600000E
:10006000C5260000710F0000750F0000790F000019
:100070007D0F0000810F0000850F0000890F000038
:100080008D0F0000910F0000950F0000990F0000E8
:100090009D0F0000A10F0000A50F0000A90F000098
:1000A000AD0F0000B10F0000B50F0000B90F000048
:1000B000BD0F0000C10F0000C50F0000C90F0000F8
:1000C00010B596B000238DF8273000238DF8263028
:1000D00000238DF8253000F0F3F803468DF8273023
:1000E0009DF92730002B00D0FEE7654B04AC0FCB09
:1000F00007C4238004AB0893624A02AB92E8030072
:1001000083E803000023159320E00023149302E00A
:10011000149B01331493149B5B4A9342F8D95B4BB5
:100120001B68184601F0BEFB0023139302E0139BEB
:1001300001331393139B544A9342F8D9534B1B68D2
:10014000184601F0CFFB159B01331593159B022B2D
:10015000DBDD00238DF81F304D4B196804AA039B8B
:100160000093029B084611460E2202F059FB0346FB
:100170008DF81F309DF91F3013F1080F27D1002390
:10018000129320E00023119302E0119B013311939D
:10019000119B3D4A9342F8D93C4B1B68184601F02D
:1001A00081FB0023109302E0109B01331093109BFE
:1001B000354A9342F8D9354B1B68184601F092FB3B
:1001C000129B01331293129B022BDBDD57E09DF94A
:1001D0001F3013F1060F27D100230F9320E00023D7
:1001E0000E9302E00E9B01330E930E9B264A934220
:1001F000F8D9284B1B68184601F054FB00230D93D7
:1002000002E00D9B01330D930D9B1F4A9342F8D9D9
:10021000204B1B68184601F065FB0F9B01330F93C1
:100220000F9B022BDBDDFEE79DF91F30002B26D153
:1002300000230C9320E000230B9302E00B9B01337F
:100240000B930B9B104A9342F8D9134B1B6818462B
:1002500001F028FB00230A9302E00A9B01330A9372
:100260000A9B094A9342F8D90B4B1B68184601F0C8
:1002700039FB0C9B01330C930C9B022BDBDD6BE7F2
:10028000EC440000FC4400003F4B4C0048040010CC
:100290003C040010440400104004001082B000230D
:1002A00001930023019302E0019B01330193019B21
:1002B000024A9342F8D902B0704700BF7FF0FA02B9
:1002C00008B51E4800F052F802461D4B1A601C4B40
:1002D0001B68002B01D1FF232CE01A4802F054FACE
:1002E0000246194B1A60194801F0A4FA0246184B4D
:1002F0001A60184801F09EFA0246174B1A60174818
:1003000001F098FA0246164B1A60164801F092FA6C
:100310000246154B1A60104B1B68002B07D0124B7E
:100320001B68002B03D00A4B1B68002B01D1FF2355
:1003300000E000235BB2184608BD00BF00C00720E4
:100340004C04001040C007203C0400100CC00720E3
:100350004404001018C007204804001024C00720DF
:100360004004001030C007203804001000B585B0EC
:100370000190019800F02AFE0390039B184605B0F7
:100380005DF804FB00B585B00190019B1B78042B40
:1003900001D9FF235DE0019B1B781A462F4B9B5C24
:1003A0001946019B5B781A462D4B53F82220019B7E
:1003B0005B68DBB2084611461A4600F051FD034661
:1003C0008DF80F30019B1B781A46244B9B5C194615
:1003D000019B5B781A46224B53F82220019B1B6934
:1003E000DBB2084611461A4600F03CF803468DF889
:1003F0000F30019B1B781A46184B9B5C1946019BDA
:100400005B781A46164B53F82220019B9B68DBB29F
:10041000084611461A4600F065FA03468DF80F307B
:10042000019B1B781A460D4B9B5C1946019B5B7820
:100430001A460B4B53F82220019BDB68DBB20846BF
:1004400011461A4600F08EFC03468DF80F309DF8D9
:100450000F305BB2184605B05DF804FB04450000A0
:100460000C45000086B00390029113468DF80730CA
:100470009DF8073003F003038DF80730039B402BF2
:1004800000F0E480402B04D8002B09D0202B72D040
:100490001FE2602B00F04581802B00F0AF8118E255
:1004A0000023ADF816302BE0BDF81630012202FA19
:1004B00003F31A46029B1340BDF81620012101FAEE
:1004C00002F2934217D1CC49CB4B1B68BDF81620E2
:1004D0005200032000FA02F2D24313400B60C648D8
:1004E000C54B1B689DF80710BDF81620520001FA95
:1004F00002F213430360BDF816300133ADF8163035
:10050000BDF816300F2BCFD91023ADF816302DE0E3
:10051000BDF81630012202FA03F31A46029B13407B
:10052000BDF81620012101FA02F2934219D1B24915
:10053000B14B5B68BDF81620103A5200032000FA58
:1005400002F2D24313404B60AB48AB4B5B689DF863
:100550000710BDF81620103A520001FA02F21343B8
:100560004360BDF816300133ADF81630BDF81630D3
:100570001F2BCDD9AFE10023ADF816302BE0BDF82D
:100580001630012202FA03F31A46029B1340BDF80B
:100590001620012101FA02F2934217D19649964B97
:1005A0009B68BDF816205200032000FA02F2D243E5
:1005B00013408B609048904B9B689DF80710BDF8E6
:1005C0001620520001FA02F213438360BDF8163080
:1005D0000133ADF81630BDF816300F2BCFD91023EC
:1005E000ADF816302DE0BDF81630012202FA03F303
:1005F0001A46029B1340BDF81620012101FA02F2AF
:10060000934219D17C497C4BDB68BDF81620103A27
:100610005200032000FA02F2D2431340CB60764826
:10062000754BDB689DF80710BDF81620103A520094
:1006300001FA02F21343C360BDF816300133ADF87E
:100640001630BDF816301F2BCDD944E10023ADF88C
:1006500016302BE0BDF81630012202FA03F31A46D9
:10066000029B1340BDF81620012101FA02F29342C9
:1006700017D16149604B1B69BDF816205200032059
:1006800000FA02F2D24313400B615B485A4B1B69DC
:100690009DF80710BDF81620520001FA02F213432C
:1006A0000361BDF816300133ADF81630BDF81630D1
:1006B0000F2BCFD91023ADF816302DE0BDF8163032
:1006C000012202FA03F31A46029B1340BDF81620DA
:1006D000012101FA02F2934219D14749464B5B6965
:1006E000BDF81620103A5200032000FA02F2D2435D
:1006F00013404B614048404B5B699DF80710BDF8C3
:100700001620103A520001FA02F213434361BDF879
:1007100016300133ADF81630BDF816301F2BCDD989
:10072000D9E00023ADF816302BE0BDF816300122D9
:1007300002FA03F31A46029B1340BDF8162001216A
:1007400001FA02F2934217D12B492B4B9B69BDF85A
:1007500016205200032000FA02F2D24313408B61AC
:100760002548254B9B699DF80710BDF816205200BF
:1007700001FA02F213438361BDF816300133ADF87C
:100780001630BDF816300F2BCFD91023ADF8163028
:100790002DE0BDF81630012202FA03F31A46029B3F
:1007A0001340BDF81620012101FA02F2934219D13B
:1007B0001149114BDB69BDF81620103A5200032095
:1007C00000FA02F2D2431340CB610B480A4BDB69BB
:1007D0009DF80710BDF81620103A520001FA02F2F7
:1007E0001343C361BDF816300133ADF81630BDF8C0
:1007F00016301F2BCDD96EE000C002400023ADF8AB
:1008000016302BE0BDF81630012202FA03F31A4627
:10081000029B1340BDF81620012101FA02F2934217
:1008200017D12F492E4B1B6ABDF81620520003200A
:1008300000FA02F2D24313400B622948284B1B6A8C
:100840009DF80710BDF81620520001FA02F213437A
:100850000362BDF816300133ADF81630BDF816301E
:100860000F2BCFD91023ADF816302DE0BDF8163080
:10087000012202FA03F31A46029B1340BDF8162028
:10088000012101FA02F2934219D11549144B5B6A16
:10089000BDF81620103A5200032000FA02F2D243AB
:1008A00013404B620E480E4B5B6A9DF80710BDF873
:1008B0001620103A520001FA02F213434362BDF8C7
:1008C00016300133ADF81630BDF816301F2BCDD9D8
:1008D00001E0FF2300E000235BB2184606B070473A
:1008E00000C0024086B00390029113468DF8073095
:1008F0009DF8073003F003038DF80730039B402B6E
:1009000000F0E480402B04D8002B09D0202B72D0BB
:100910001FE2602B00F04581802B00F0AF8118E2D0
:100920000023ADF816302BE0BDF81630012202FA94
:1009300003F31A46029B1340BDF81620012101FA69
:1009400002F2934217D1CC49CB4B1B6CBDF8162059
:100950005200032000FA02F2D24313400B64C6484F
:10096000C54B1B6C9DF80710BDF81620520001FA0C
:1009700002F213430364BDF816300133ADF81630AC
:10098000BDF816300F2BCFD91023ADF816302DE05F
:10099000BDF81630012202FA03F31A46029B1340F7
:1009A000BDF81620012101FA02F2934219D1B24991
:1009B000B14B5B6CBDF81620103A5200032000FAD0
:1009C00002F2D24313404B64AB48AB4B5B6C9DF8D7
:1009D0000710BDF81620103A520001FA02F2134334
:1009E0004364BDF816300133ADF81630BDF816304B
:1009F0001F2BCDD9AFE10023ADF816302BE0BDF8A9
:100A00001630012202FA03F31A46029B1340BDF886
:100A10001620012101FA02F2934217D19649964B12
:100A20009B6CBDF816205200032000FA02F2D2435C
:100A300013408B649048904B9B6C9DF80710BDF859
:100A40001620520001FA02F213438364BDF81630F7
:100A50000133ADF81630BDF816300F2BCFD9102367
:100A6000ADF816302DE0BDF81630012202FA03F37E
:100A70001A46029B1340BDF81620012101FA02F22A
:100A8000934219D17C497C4BDB6CBDF81620103A9F
:100A90005200032000FA02F2D2431340CB6476489E
:100AA000754BDB6C9DF80710BDF81620103A52000C
:100AB00001FA02F21343C364BDF816300133ADF8F6
:100AC0001630BDF816301F2BCDD944E10023ADF808
:100AD00016302BE0BDF81630012202FA03F31A4655
:100AE000029B1340BDF81620012101FA02F2934245
:100AF00017D16149604B1B6DBDF8162052000320D1
:100B000000FA02F2D24313400B655B485A4B1B6D4F
:100B10009DF80710BDF81620520001FA02F21343A7
:100B20000365BDF816300133ADF81630BDF8163048
:100B30000F2BCFD91023ADF816302DE0BDF81630AD
:100B4000012202FA03F31A46029B1340BDF8162055
:100B5000012101FA02F2934219D14749464B5B6DDC
:100B6000BDF81620103A5200032000FA02F2D243D8
:100B700013404B654048404B5B6D9DF80710BDF836
:100B80001620103A520001FA02F213434365BDF8F1
:100B900016300133ADF81630BDF816301F2BCDD905
:100BA000D9E00023ADF816302BE0BDF81630012255
:100BB00002FA03F31A46029B1340BDF816200121E6
:100BC00001FA02F2934217D12B492B4B9B6DBDF8D2
:100BD00016205200032000FA02F2D24313408B6524
:100BE0002548254B9B6D9DF80710BDF81620520037
:100BF00001FA02F213438365BDF816300133ADF8F4
:100C00001630BDF816300F2BCFD91023ADF81630A3
:100C10002DE0BDF81630012202FA03F31A46029BBA
:100C20001340BDF81620012101FA02F2934219D1B6
:100C30001149114BDB6DBDF81620103A520003200C
:100C400000FA02F2D2431340CB650B480A4BDB6D2E
:100C50009DF80710BDF81620103A520001FA02F272
:100C60001343C365BDF816300133ADF81630BDF837
:100C700016301F2BCDD96EE000C002400023ADF826
:100C800016302BE0BDF81630012202FA03F31A46A3
:100C9000029B1340BDF81620012101FA02F2934293
:100CA00017D12F492E4B1B6EBDF816205200032082
:100CB00000FA02F2D24313400B662948284B1B6E00
:100CC0009DF80710BDF81620520001FA02F21343F6
:100CD0000366BDF816300133ADF81630BDF8163096
:100CE0000F2BCFD91023ADF816302DE0BDF81630FC
:100CF000012202FA03F31A46029B1340BDF81620A4
:100D0000012101FA02F2934219D11549144B5B6E8D
:100D1000BDF81620103A5200032000FA02F2D24326
:100D200013404B660E480E4B5B6E9DF80710BDF8E6
:100D30001620103A520001FA02F213434366BDF83E
:100D400016300133ADF81630BDF816301F2BCDD953
:100D500001E0FF2300E000235BB2184606B07047B5
:100D600000C0024084B00390029113468DF8073012
:100D7000039B402B31D0402B04D8002B07D0202BD5
:100D800018D063E0602B3BD0802B4CD05EE09DF808
:100D90000730002B06D03149304B9A6E029B13432B
:100DA0008B6655E02D492D4B9A6E029BDB43134019
:100DB0008B664DE09DF80730002B06D02749274B66
:100DC000DA6E029B1343CB6642E02449234BDA6E72
:100DD000029BDB431340CB663AE09DF80730002BC3
:100DE00006D01E491D4B1A6F029B13430B672FE061
:100DF0001A491A4B1A6F029BDB4313400B6727E01B
:100E00009DF80730002B06D01449144B5A6F029BF3
:100E100013434B671CE01149104B5A6F029BDB4395
:100E200013404B6714E09DF80730002B06D00B49A8
:100E30000A4B9A6F029B13438B6709E00749074BE4
:100E40009A6F029BDB4313408B6701E0FF2300E0B6
:100E500000235BB2184604B0704700BF00C00240D8
:100E600084B00390029113468DF807309DF8073047
:100E7000012B0FD1039B03F1005303F51C231946EB
:100E8000039B03F1005303F51C231A68029B1343D1
:100E90000B600FE0039B03F1005303F51C2319467D
:100EA000039B03F1005303F51C231A68029BDB43E9
:100EB00013400B6000235BB2184604B0704700BFBC
:100EC00000B583B0114B124A1A60124B0193124BBA
:100ED000009307E0009B1A1D0092019A111D0191D9
:100EE00012681A60009B0D4A9342F3D30C4B009397
:100EF00004E0009B1A1D009200221A60009B094A20
:100F00009342F6D3FFF7DCF8FEE700BF08ED00E000
:100F1000000000004446000000C0072040C3072036
:100F20000000001054040010FEE700BFFEE700BF01
:100F3000FEE700BFFEE700BFFEE700BFFEE700BF21
:100F4000FEE700BFFEE700BFFEE700BFFEE700BF11
:100F5000FEE700BFFEE700BFFEE700BFFEE700BF01
:100F6000FEE700BFFEE700BFFEE700BFFEE700BFF1
:100F7000FEE700BFFEE700BFFEE700BFFEE700BFE1
:100F8000FEE700BFFEE700BFFEE700BFFEE700BFD1
:100F9000FEE700BFFEE700BFFEE700BFFEE700BFC1
:100FA000FEE700BFFEE700BFFEE700BFFEE700BFB1
:100FB000FEE700BFFEE700BFFEE700BFFEE700BFA1
:100FC000FEE700BFFEE700BFFEE700BF00B585B04B
:100FD000019000238DF80F30002003F057F90346ED
:100FE0000293029B002B01D100230CE0019800F03A
:100FF00059F903468DF80F309DF90F30002B01D0C1
:10100000002300E0029B184605B05DF804FB00BF1A
:1010100088B00190234BD3F88830C3F30E0301331B
:101020000593204BD3F888301B0CDBB201330493BB
:101030001C4BD3F80431DBB201330393194BD3F8C3
:101040000C3103F003030293029B012B04D0022B0B
:1010500006D0154B079307E0144B1B68079303E07A
:101060004FF40043079300BF0E4BD3F888301B0E9C
:1010700003F00303032B0CD1079A049BB2FBF3F399
:10108000059A02FB03F35A00039BB2FBF3F30693AA
:1010900004E0079A039BB2FBF3F30693069B184602
:1010A00008B0704700C00F4000093D00000000106C
:1010B00084B0039002910192029B1E2B19D9194909
:1010C000184BD3F8AC31029A203A104603228240E2
:1010D000D2431340C1F8AC311249124BD3F8AC21C2
:1010E000029B203B1846019B83401343C1F8AC315F
:1010F00016E00C490B4BD3F8A831029A032000FAF2
:1011000002F2D2431340C1F8A8310648054BD3F888
:10111000A821029B019901FA03F31343C0F8A831F7
:1011200004B0704700C00F4000B587B00190009137
:101130001B4A03AB106818600198FFF769FF049021
:10114000009B1E2B10D9174BD3F8AC31009A203AD4
:10115000114603228A4013400593009B203B1A4608
:10116000059BD34005930DE00E4BD3F8A831009AB0
:10117000032101FA02F213400593009B059A22FA1B
:1011800003F3059303AA059B13441B781A46049B9B
:10119000B3FBF2F30493049B184607B05DF804FB1D
:1011A0008C45000000C00F4000B587B0039002914D
:1011B00001920093344BD3F888300593324B2022B0
:1011C000C3F8A02100BF304BD3F8A03103F0400397
:1011D000002BF8D0059B03F00073002B09D02A4A9E
:1011E000294BD3F8803023F00103C2F8803000F09F
:1011F0004DF8059B03F08073002B09D0224A224B47
:10120000D3F8803023F00203C2F8803000F03EF8BB
:101210001D4A009BC2F80C311B49039B013B1A0479
:10122000029B013B1343C1F8843000F02FF8164BAA
:101230000122C3F8802000F029F8134A019B013BEA
:10124000C2F80431104B0022C3F8A8210E4B002233
:10125000C3F8AC2100BF0C4BD3F8883003F0806397
:10126000002BF8D0084B0322C3F8802000F00EF8C2
:10127000054BD3F8883005930023059300235BB218
:10128000184607B05DF804FB00C00F40044BAA22CB
:10129000C3F88C20024B5522C3F88C20704700BF46
:1012A00000C00F4000B58BB00190002307930023CE
:1012B0008DF81B30019B5B682C4A1360019B1B68F7
:1012C0002B4AB2FBF3F30593019B1B68059A02FBC3
:1012D00003F2019B5B685B00B2FBF3F30493049B96
:1012E000089316E0019B5B68224AA2FB03239B0C38
:1012F000089AB3FBF2F2089901FB02F29B1A002B49
:1013000004D1089B0993012307930BE0089B013349
:101310000893019B5B68174AA2FB03239A0C089B66
:101320009A42DFD2079B002B01D1FE2318E0019BDC
:101330001B68059A02FB03F3099A02FB03F30E4AAA
:10134000A2FB03235B0D0393019B1B7A099803996E
:10135000059AFFF729FF03468DF81B309DF81B30D7
:101360005BB218460BB05DF804FB00BF0000001034
:1013700000A3E11183DE1B43819F5E1600B589B097
:10138000019000238DF81E3000238DF81F300023BC
:101390000693019B9B780393019BDB780493019B4D
:1013A0001B790593019B1B788DF80830019B5B78B6
:1013B0008DF8093002AB1846FEF7E4FF03468DF8BE
:1013C0001E309DF91E30002B02D09DF81E305FE0CC
:1013D000019B5B79012B53D1019B1B78022B05D01C
:1013E000019B1B78002B01D0FF2351E0019B1B7850
:1013F000022B05D1019B5B780D2B01D9FF2347E020
:10140000019B1B78002B0DD1019B5B780C2B07D027
:10141000019B5B780D2B03D0019B5B780E2B01D1D8
:10142000FF2335E0019BDB78032B01D9FF232FE05D
:1014300000238DF81F301CE09DF91F30174AD35C44
:10144000002B0FD19DF81F20154B1A709DF91F30EE
:10145000124A0121D1549DF91F30019A9179114A04
:10146000D1540AE09DF81F30DBB20133DBB28DF8B6
:101470001F309DF91F30292BDEDD0B4B01221A7026
:101480000A4B1B78013BDAB2084B1A709DF81E30EC
:101490005BB2184609B05DF804FB00BFD80200102B
:1014A000D4020010040000100203001054C00720F2
:1014B00082B00190019B1B795A01074B13441A46D5
:1014C000019B5B79194601238B40136000235BB2BB
:1014D000184602B0704700BF18C0092082B00190C2
:1014E000019B1B795A01074B13441A46019B5B79F8
:1014F000194601238B40136000235BB2184602B0EB
:10150000704700BF1CC0092084B00190019B1B796B
:101510005A010A4B13441B680393019B5B791A46DB
:10152000012303FA02F2039B1340019A52791341FB
:10153000DBB25BB2184604B0704700BF14C009208C
:1015400082B001900B468DF803309DF80330002BDC
:1015500017D0019B1B7903F1807303F59C435B015A
:101560001946019B1B7903F1807303F59C435B01D2
:101570001B68019A527910460122824013430B6086
:1015800017E0019B1B7903F1807303F59C435B011A
:101590001946019B1B7903F1807303F59C435B01A2
:1015A0001B68019A5279104601228240D2431340AF
:1015B0000B6000235BB2184602B07047014B1B78EA
:1015C0001846704754C0072084B0019000238DF85E
:1015D0000F30019B1B79022B05D0019B1B79002B3F
:1015E00001D0FD239DE000238DF80F3090E09DF8A1
:1015F0000F204E4913465B0013449B000B445A785E
:10160000019B5B799A427ED1019B1B79002B02D012
:10161000022B3CD077E09DF80F30454AD35C002B7D
:1016200009D14449434B5B69019A52791046012222
:10163000824013434B619DF80F303D4AD35C012B30
:1016400009D13C493B4B1B69019A52791046012252
:10165000824013430B619DF80F30354AD35C022B57
:1016600014D13449334B5B69019A527910460122F7
:10167000824013434B612F492E4B1B69019A5279CB
:1016800010460122824013430B613CE03BE09DF891
:101690000F30274AD35C002B09D12649254B5B6BC1
:1016A000019A527910460122824013434B639DF800
:1016B0000F301F4AD35C012B09D11E491D4B1B6BF8
:1016C000019A527910460122824013430B639DF820
:1016D0000F30174AD35C022B14D11649154B5B6BA4
:1016E000019A527910460122824013434B631149FB
:1016F000104B1B6B019A5279104601228240134312
:101700000B63FFE700BF9DF80F3001338DF80F30FA
:101710009DF80F30292B7FF66AAF074B01221A7014
:1017200000235BB2184604B0704700BFDC00001015
:1017300004000010808002402E00001082B0019052
:10174000034B00221A7000235BB2184602B07047A8
:101750002E00001084B00190009100238DF80F300E
:1017600000238DF80F3018E09DF80F201149134623
:101770005B0013449B000B445A78019B5B799A42AF
:1017800006D19DF80F300C49009A41F8232008E05B
:101790009DF80F3001338DF80F309DF80F30292B55
:1017A000E2D9064B01221A7000235BB2184604B03E
:1017B000704700BFDC00001030000010D80000109F
:1017C00084B0019000238DF80F30174B1B78012B4C
:1017D00001D1FF2324E000238DF80F3018E09DF89D
:1017E0000F20124913465B0013449B000B445A78A8
:1017F000019B5B799A4206D19DF80F300C4A00217B
:1018000042F8231008E09DF80F3001338DF80F30B7
:101810009DF80F30292BE2D9034B00221A700023C8
:101820005BB2184604B07047D8000010DC0000100E
:101830003000001000B585B0019000238DF80F3006
:10184000FFF7BCFE0346002B26D0082002F01EFD49
:1018500003460293029B002B01D100231DE0019B54
:101860001A78029B1A71019B5A78029B5A71019B4C
:101870009A78029B9A71029B00221A600198FFF7E6
:101880007DFD03468DF80F309DF90F30002B01D000
:10189000002302E0029B00E00023184605B05DF83B
:1018A00004FB00BF00B585B0019000238DF80F3018
:1018B000019B1B68002B06D10198FFF7F9FD034639
:1018C0008DF80F3007E0019B1B685B680198984713
:1018D00003468DF80F309DF80F305BB2184605B007
:1018E0005DF804FB00B585B0019000238DF80F3042
:1018F000019B1B68002B06D10198FFF7EFFD034603
:101900008DF80F3007E0019B1B689B680198984792
:1019100003468DF80F309DF80F305BB2184605B0C6
:101920005DF804FB00B585B0019000238DF80F3001
:10193000019B1B68002B06D10198FFF7E5FD0346CC
:101940008DF80F3007E0019B1B68DB680198984712
:1019500003468DF80F309DF80F305BB2184605B086
:101960005DF804FB00B585B001900B468DF803309F
:1019700000238DF80F30019B1B68002B09D19DF8C7
:10198000033001981946FFF7DBFD03468DF80F3051
:101990000AE0019B1B681B699DF803200198114612
:1019A000984703468DF80F309DF80F305BB218460C
:1019B00005B05DF804FB00BF00B583B000238DF8CF
:1019C0000730FFF7FBFD03468DF807309DF8073021
:1019D000184603B05DF804FB00B585B00190019B8B
:1019E0005B690198984703468DF80F309DF80F30DA
:1019F000184605B05DF804FB00B589B00190009170
:101A000000238DF81F30009B1A78019B1A71009BF0
:101A10001B78012B09D1009B1B781A46524B53F8B7
:101A200022301A46019B9A6008E0009B1B781A46F8
:101A30004D4B53F822301A46019B9A60019B1B794B
:101A400019464A4A019B42F82130009B5A79019B72
:101A50005A73012303930023049300230593009BEF
:101A60001B691B788DF80830009B1B695B788DF82B
:101A700009309DF80830002B07D09DF80830022B64
:101A800003D09DF80830042B18D19DF808305B086E
:101A9000DBB29DF809201146354A5B010B44134423
:101AA0001B78069302AB1846FEF76CFC03468DF8D4
:101AB0001F309DF91F30002B02D103E0FF234DE0C2
:101AC000FF234BE00023039300230493002305939B
:101AD000009B1B699B788DF80830009B1B69DB78A5
:101AE0008DF809309DF80830002B07D09DF808309C
:101AF000022B03D09DF80830042B18D19DF8083034
:101B00005B08DBB29DF809201146194A5B010B44C2
:101B100013441B78069302AB1846FEF733FC0346CA
:101B20008DF81F309DF91F30002B02D103E0FF23F9
:101B300014E0FF2312E00098019900F043FB0346F4
:101B40008DF81F309DF91F30002B01D0FF2305E0D9
:101B5000084B1B68013B074A136000235BB2184621
:101B600009B05DF804FB00BF88C007200403001023
:101B7000DC45000098C0072082B00190019B1B79D2
:101B80001A460C4B00219954019B00221A730A49F2
:101B9000094BD3F8C420019B1B791846074B53F817
:101BA0002030DB431340C1F8C43000235BB2184639
:101BB00002B070471403001000C00F4068C0072037
:101BC00082B010B586B00390029101920993039BF5
:101BD0001B7B002B02D06FF007037EE0039B0122EA
:101BE0001A73039B5B7B002B44D0039800F0D8FE54
:101BF00004903D4B1A68049BD21A019B9A4205D26D
:101C0000039B00221A736FF0050366E0002305931F
:101C10000CE0039B1969029A059B13441B78084644
:101C2000194600F04DFF059B01330593059A019B72
:101C30009A42EED3039800F0B3FE03461A46019B86
:101C40009A4246D1039B1B79012B09D1039B9C68C7
:101C5000039B1B69184600F05FFF0346237038E0C2
:101C6000039B9C68039B1B69184600F055FF0346C5
:101C700023702EE00023059327E0039B1B79012BA3
:101C800010D1039B9B680299059A0A4412781A7036
:101C900000BF039B9B681B7DDBB203F02003002B7E
:101CA000F7D00FE0039B9B680299059A0A441278CB
:101CB0001A7000BF039B9B681B7DDBB203F02003FF
:101CC000002BF7D0059B01330593059A019B9A429F
:101CD000D3D3039B00221A730023184606B0BDE835
:101CE000104002B0704700BF2003001010B588B04C
:101CF00003900291694681E80C00039B1B7B002B3B
:101D000002D06FF0070386E0039B01221A73039B46
:101D10005B7B002B4AD0039800F042FE06900298AD
:101D200001F002F805903D4B1A68069BD21A059BFC
:101D30009A4205D2039B00221A736FF005036AE0F2
:101D4000002307930CE0039B1969029A079B134435
:101D50001B780846194600F0B3FE079B0133079332
:101D6000029A079B13441B78002BECD1039800F0D8
:101D700017FE03461A46059B9A4248D1039B1B79DE
:101D8000012B09D1039B9C68039B1B69184600F03B
:101D9000C3FE034623703AE0039B9C68039B1B69C8
:101DA000184600F0B9FE0346237030E00023079385
:101DB00027E0039B1B79012B10D1039B9B680299A1
:101DC000079A0A4412781A7000BF039B9B681B7D18
:101DD000DBB203F02003002BF7D00FE0039B9B68DE
:101DE0000299079A0A4412781A7000BF039B9B68F5
:101DF0001B7DDBB203F02003002BF7D0079B0133E0
:101E00000793029A079B13441B78002BD1D1039BA5
:101E100000221A730023184608B010BD20030010DA
:101E200082B010B586B0039002910192099300230D
:101E3000059300230493039B1B7B002B02D06FF0C0
:101E4000070365E0039B01221A7300230493039B9D
:101E50005B7B002B21D00023059319E0039B5B697A
:101E6000184600F089FE0346012B01D100BF4BE06C
:101E7000029A059BD418039B5B69184600F04CFE40
:101E800003462370049B01330493059B01330593A0
:101E9000059A019B9A42E1D336E0002305932FE097
:101EA000039B1B79012B14D100BF039B9B681B7DF7
:101EB000DBB203F00103002BF7D0029A059B134419
:101EC000039A92681278D2B21A70049B0133049379
:101ED00013E000BF039B9B681B7DDBB203F0010393
:101EE000002BF7D0029A059B1344039A926812784C
:101EF000D2B21A70049B01330493059B01330593FE
:101F0000059A019B9A42CBD3039B00221A73049B30
:101F1000184606B0BDE8104002B07047014B1B6880
:101F20001846704798C0072000B583B00190019B08
:101F30005B69184600F0BCFD0346184603B05DF827
:101F400004FB00BF00B583B00190019B5B6918469C
:101F500000F006FE00235BB2184603B05DF804FBF8
:101F600000B583B00190019B1B69184600F0A0FDED
:101F70000346184603B05DF804FB00BF00B583B00C
:101F80000190019B1B69184600F0EAFD00235BB23B
:101F9000184603B05DF804FB10B588B003900291B9
:101FA00001920093029B1A01039BB3FBF2F102FB27
:101FB00001F29B1A002B0BD1019B01221A70009B8E
:101FC00000221A70029B1B01039AB2FBF3F3E6E0B6
:101FD0004FF07F530793039801F0F4FE0446029BF1
:101FE0001B01184601F0EEFE03461846079901F062
:101FF00041FF03462046194601F0F0FF034618460C
:1020000002F024F90346ADF81630039801F0DAFE29
:102010000446BDF81630029A02FB03F31B01184672
:1020200001F0D0FE03462046194601F0D7FF0346D3
:102030000493049801F0D2FA02460B461046194662
:1020400059A3D3E9002301F099FD0346002B14D0D6
:10205000079801F0C3FA02460B461046194654A3EE
:10206000D3E9002301F05CF902460B4610461946FD
:1020700001F0A2FD0346079329E0049801F0AEFAAF
:1020800002460B46104619464BA3D3E9002301F044
:102090007FFD0346002B14D0079801F09FFA0246FB
:1020A0000B461046194642A3D3E9002301F036F946
:1020B00002460B461046194601F07EFD0346079383
:1020C00005E0049B079300BF002306935DE082E7D1
:1020D0003B4A069B52F833301846079902F07CF8C9
:1020E0000346002B4ED0069B002B0ED1344A069B94
:1020F000DB0013445A79019B1A70314A069BDB00BE
:1021000013441A79009B1A7039E02D4A069B52F845
:1021100033301846079901F0A3FD03461C46069B81
:10212000013B274A52F833300798194601F098FDD1
:1021300003462046194602F045F80346002B0ED010
:102140001F4A069BDB0013445A79019B1A701C4AF4
:10215000069BDB0013441A79009B1A700FE0069B64
:10216000013B174ADB0013445A79019B1A70069B06
:10217000013B134ADB0013441A79009B1A70BDF827
:1021800016300CE0069B01330693069B472B9FD924
:10219000019B00221A70009B00221A70002318462F
:1021A00008B010BDAFF300809A9999999999F13FC1
:1021B0009A9999999999B93F666666666666FE3FEF
:1021C0009CC0072000B587B0019000919C499C4BB2
:1021D000D3F8C420019B1B7818469A4B53F8203043
:1021E0001343C1F8C430019B1B781A46964B53F831
:1021F0002230002019460022FEF75AFF019B9B78EF
:10220000053B924A52F8233003F00302019B1B79ED
:10221000013B8F4951F8233003F001039B001A431F
:10222000019BDB7819468B4B53F8213003F00703F1
:10223000DB00134343F080030593019B1B78012BC4
:1022400005D1009B9B68059AD2B21A7304E0009BEB
:102250009B68059AD2B21A73019B1B781A467A4B77
:1022600053F8223000201946FEF75EFF0490019BD0
:102270005B781A46784B53F822100DF10A020DF1E3
:1022800009030498FFF788FE03460393039B002B82
:1022900001D1FD23CFE0019B1B78012B17D1009BBF
:1022A0009B68039AD2B21A70009B9B68039A120A29
:1022B000D2B21A71009B9B689DF8092002F00F01B1
:1022C0009DF80A201201D2B20A439A621BE0009BD9
:1022D0009B68039AD2B21A70009B9B68039A120AF9
:1022E000D2B21A71009B9B689DF80920D2B202F00D
:1022F0000F02D1B29DF80A201201D2B20A43D2B223
:10230000D2B283F82820019B1B78012B0AD1009BB5
:102310009B68009A9268127BD2B202F07F02D2B21E
:102320001A7309E0009B9B68009A9268127BD2B2F4
:1023300002F07F02D2B21A73019B5B79012B70D13C
:10234000019B9B68454A1360019BDB68444A13600C
:10235000434B1B68184601F099FF03461A46414B50
:102360001A603E4B1B68184601F090FF03461A4660
:102370003D4B1A603B4B1A68394B1B6810460021D5
:102380001A4600F059FD384B1A68344B1B6810464A
:1023900000211A4600F050FD019B1B78012B04D14F
:1023A000009B9B6803225A6003E0009B9B6803220A
:1023B0005A60019B1B781A462C4B53F82230DBB233
:1023C0008DF80B302A499DF90B305B099DF80B20E5
:1023D00002F01F02012000FA02F241F82320224BF2
:1023E0001A681E4B1B681046194600F029FB02466E
:1023F000009B1A61009B1B69002B01D1FF231AE08F
:10240000184B1A68164B1B681046194600F018FB4B
:102410000246009B5A61009B5B69002B01D1FF23A0
:1024200009E0019B1B781A46124B01219954009B2D
:1024300000221A7300235BB2184607B05DF804FB54
:1024400000C00F4068C0072078C00720CC450000BE
:10245000C4450000B0450000904500002003001076
:1024600024030010180300101C03001058C007209C
:1024700000E100E01403001010B582B000230193C6
:102480002D4B1B681B79012B05D12B4B1B689B68BF
:102490009B68019304E0284B1B689B689B68019331
:1024A000019B03F00403002B1AD0234B5B681B79BC
:1024B000012B06D1204B1B689B681B788DF80330DD
:1024C00005E01D4B1B689B681B788DF803301A4B89
:1024D0001B685A699DF803301046194600F0F0FA5F
:1024E000019B03F00203002B24D0134B1B681B69D4
:1024F000184600F041FB0346012B1BD00E4B1B6816
:102500001B79012B0BD10C4B1B689C680A4B1B6879
:102510001B69184600F000FB034623700AE0064BD7
:102520001B689C68044B1B681B69184600F0F4FA92
:102530000346237002B010BD0403001010B582B032
:10254000002301932D4B5B681B79012B05D12B4B8D
:102550005B689B689B68019304E0284B5B689B6801
:102560009B680193019B03F00403002B1AD0234BBB
:102570005B681B79012B06D1204B5B689B681B783D
:102580008DF8033005E01D4B5B689B681B788DF868
:1025900003301A4B5B685A699DF8033010461946A0
:1025A00000F08EFA019B03F00203002B24D0134BA2
:1025B0005B681B69184600F0DFFA0346012B1BD04D
:1025C0000E4B5B681B79012B0BD10C4B5B689C6835
:1025D0000A4B5B681B69184600F09EFA034623709D
:1025E0000AE0064B5B689C68044B5B681B691846F5
:1025F00000F092FA0346237002B010BD04030010ED
:1026000010B582B0002301932D4B9B681B79012BE1
:1026100005D12B4B9B689B689B68019304E0284B7A
:102620009B689B689B680193019B03F00403002B4C
:102630001AD0234B9B681B79012B06D1204B9B683A
:102640009B681B788DF8033005E01D4B9B689B68E9
:102650001B788DF803301A4B9B685A699DF803303C
:102660001046194600F02CFA019B03F00203002BE0
:1026700024D0134B9B681B69184600F07DFA034673
:10268000012B1BD00E4B9B681B79012B0BD10C4BE4
:102690009B689C680A4B9B681B69184600F03CFAD3
:1026A000034623700AE0064B9B689C68044B9B68BA
:1026B0001B69184600F030FA0346237002B010BDC3
:1026C0000403001010B582B0002301932D4BDB688A
:1026D0001B79012B05D12B4BDB689B689B68019311
:1026E00004E0284BDB689B689B680193019B03F027
:1026F0000403002B1AD0234BDB681B79012B06D176
:10270000204BDB689B681B788DF8033005E01D4B80
:10271000DB689B681B788DF803301A4BDB685A69BD
:102720009DF803301046194600F0CAF9019B03F0EA
:102730000203002B24D0134BDB681B69184600F002
:102740001BFA0346012B1BD00E4BDB681B79012BB8
:102750000BD10C4BDB689C680A4BDB681B69184685
:1027600000F0DAF9034623700AE0064BDB689C6848
:10277000044BDB681B69184600F0CEF90346237052
:1027800002B010BD0403001000B585B00190002315
:102790008DF80F30FFF7C2FB0346002B1BD01C2027
:1027A00001F074FD03460293029B002B01D100232C
:1027B00012E0029B00221A6002980199FFF71CF9AF
:1027C00003468DF80F309DF90F30002B01D0002308
:1027D00002E0029B00E00023184605B05DF804FB10
:1027E00000B585B0019000238DF80F30019B1B6868
:1027F000002B06D10198FFF7BFF903468DF80F3083
:1028000007E0019B1B689B6A0198984703468DF877
:102810000F309DF80F305BB2184605B05DF804FB31
:1028200082B010B588B00590049103920B930023F9
:102830000793059B1B68002B09D10C9B00930B9BF6
:1028400005980499039AFFF7BBF907900AE0059BE6
:102850001B685C680C9B00930B9B05980499039A7A
:10286000A0470790079B184608B0BDE8104002B08B
:10287000704700BF10B586B003900291694681E8A9
:102880000C0000230593039B1B68002B07D10398C2
:1028900002996B460CCBFFF729FA059008E0039BE1
:1028A0001B68DC68039802996B460CCBA047059027
:1028B000059B184606B010BD82B010B588B00590D3
:1028C000049103920B9300230793059B1B68002B35
:1028D00009D10C9B00930B9B05980499039AFFF771
:1028E0009FFA07900AE0059B1B681C690C9B0093EC
:1028F0000B9B05980499039AA0470790079B1846DD
:1029000008B0BDE8104002B0704700BF00B583B00A
:1029100000238DF80730FFF701FB03468DF80730E1
:102920009DF80730184603B05DF804FB00B585B08C
:10293000019000230393019B1B68002B04D1019895
:10294000FFF7F2FA039005E0019B1B68DB69019831
:1029500098470390039B184605B05DF804FB00BF41
:1029600000B585B0019000238DF80F30019B1B68E6
:10297000002B06D10198FFF7E5FA03468DF80F30DA
:1029800007E0019B1B689B690198984703468DF8F7
:102990000F309DF80F305BB2184605B05DF804FBB0
:1029A00000B585B0019000230393019B1B68002BA9
:1029B00004D10198FFF7D4FA039005E0019B1B684E
:1029C0005B6A019898470390039B184605B05DF831
:1029D00004FB00BF00B585B0019000238DF80F30D7
:1029E000019B1B68002B06D10198FFF7C7FA03462D
:1029F0008DF80F3007E0019B1B681B6A0198984710
:102A000003468DF80F309DF80F305BB2184605B0C5
:102A10005DF804FB00B585B0019000230393019B92
:102A2000002B02D14FF0FF3305E0019B5B69019859
:102A300098470390039B184605B05DF804FB00BF60
:102A400000B585B001900091182001F01FFC0346ED
:102A50000393039B002B01D100231DE0039B019AEC
:102A60005A60039B019A9A60039B019A1A60009B2B
:102A7000013B019A1A44039BDA60039B009A1A6196
:102A8000039B00225A61039B1A68039BDB689A42EE
:102A900001D9002300E0039B184605B05DF804FB54
:102AA00082B00190019B1B69184602B0704700BFBD
:102AB00082B00190019B5B69184602B0704700BF6D
:102AC00082B001900B468DF80330019B5A69019B3F
:102AD0001B699A421AD2019B9B689DF803201A70C9
:102AE000019B5B695A1C019B5A61019B9A68019B7F
:102AF000DB689A4204D1019B1A68019B9A6007E047
:102B0000019B9B685A1C019B9A6001E0002300E036
:102B10000123184602B0704782B00190019B5B69A7
:102B2000002B01D1FF2318E0019B5B695A1E019B1A
:102B30005A61019B5A68019BDB689A4207D1019B4D
:102B40001A68019B5A60019BDB681B7805E0019BBA
:102B50005B68591C019A51601B78184602B0704797
:102B600082B00190019B9A68019B5A60019B0022F0
:102B70005A6102B0704700BF82B00190019B5B694F
:102B8000002B0CBF01230023DBB2184602B07047B4
:102B900082B00190019B5A69019B1B699A422CBF2C
:102BA00001230023DBB2184602B07047000000008A
:102BB00086B0019000910023ADF816300023ADF8E7
:102BC00014300023ADF8103000238DF80F30009B37
:102BD000002B01D100239EE0BDF810300133ADF889
:102BE00010304E4ABDF810301380019B002B28D0C6
:102BF0004B4B00221A80494B00221A800023ADF86B
:102C0000103010E0464B1B881A46454B1B8819466E
:102C1000019B0B441978434B9954414B1B8801335A
:102C20009AB23F4B1A803E4B1B881A46019B1344B5
:102C30001B78002BE6D13A4B1B881A46394B0021F2
:102C4000995461E00023ADF81430BDF81030ADF8B0
:102C50001630BDF81630334AD25CBDF814300099F6
:102C60000B441B789A4200D01CE0BDF814300133AD
:102C7000ADF81430BDF816300133ADF81630BDF89C
:102C80001630284AD35C002B00D10BE0BDF814307D
:102C9000009A13441B78002B03D101238DF80F30C9
:102CA00000E0D6E79DF80F30012B1CD10023ADF8D2
:102CB00012300CE0BDF81020BDF812301344194A50
:102CC0000021D154BDF812300133ADF81230BDF8F7
:102CD0001220BDF814309A42ECD3104B1B881A46D0
:102CE000104B134417E0BDF810300133ADF810302D
:102CF0000B4B1B88BDF810209A4205D3074B1B884D
:102D00001A46084B134406E0BDF81030054AD35C60
:102D1000002B97D10023184606B0704728040010F6
:102D20002A0400102803001084B0019000230393AC
:102D300002E0039B01330393019A039B13441B7826
:102D4000002BF6D1039B184604B0704784B0019065
:102D50000091002303930AE0019A039B1344009916
:102D6000039A0A4412781A70039B01330393009A62
:102D7000039B13441B78002BEED1039B184604B031
:102D8000704700BF00B585B0019000238DF80F306B
:102D90000198FFF7C9FF0346DBB2013B8DF80E3007
:102DA00021E09DF80F30019A13441B788DF80D3007
:102DB0009DF80F30019A13449DF80E2001990A44A2
:102DC00012781A709DF80E30019A13449DF80D2068
:102DD0001A709DF80F3001338DF80F309DF80E30CA
:102DE000013B8DF80E309DF80F209DF80E309A4271
:102DF000D7D300235BB2184605B05DF804FB00BFD3
:102E000086B0039002910192002305930AE0039A91
:102E1000059B13440299059A0A4412781A70059B7F
:102E200001330593059A019B9A42F0D300235BB2CC
:102E3000184606B0704700BF86B003900B4601925B
:102E40008DF80B300023059308E0039A059B13448B
:102E50009DF80B201A70059B01330593059A019B81
:102E60009A42F2D300235BB2184606B0704700BF07
:102E700086B0039002910192002305930EE0039A1D
:102E8000059B13441A780299059B0B441B789A42C0
:102E900001D0002307E0059B01330593059A019BB0
:102EA0009A42ECD30123184606B0704730B589B07A
:102EB000019000910023ADF81E300623ADF81C30C0
:102EC0004FF00002864BCDE9042301984FF000013A
:102ED00001F06EF90346002B08D0009B5A1C0092AB
:102EE0002D221A70019B83F00043019301984FF04B
:102EF000000101F053F90346002B15D10CE00198B5
:102F0000784900F0B7FF03460193BDF81E309BB22D
:102F1000013B9BB2ADF81E3001984FF07E5101F09D
:102F200047F90346002BEAD10CE001986E4900F006
:102F3000A1FF03460193BDF81E309BB201339BB243
:102F4000ADF81E300198674901F046F90346002BA1
:102F5000EBD10123ADF81A3011E0DDE904015EA3E5
:102F6000D3E9002300F08EFB02460B46CDE9042393
:102F7000BDF81A309BB201339BB2ADF81A30BDF9DF
:102F80001A20BDF91C309A42E7DB019800F026FBBD
:102F900004460D46DDE904014FF00002534B00F0FA
:102FA00071FB02460B462046294600F0B9F902465D
:102FB0000B461046194600F0FFFD034601930198A9
:102FC000484901F009F90346002B10D04FF07E5319
:102FD0000193BDF81E309BB201339BB2ADF81E3099
:102FE000BDF81C309BB201339BB2ADF81C30BDF96B
:102FF0001E30002B20DA009B5A1C009230221A70DF
:10300000009B5A1C00922E221A704FF6FF73ADF8E7
:103010001A300BE0009B5A1C009230221A70BDF847
:103020001A309BB2013B9BB2ADF81A30BDF91A20A1
:10303000BDF91E309A42EDDC0023ADF81A3039E0BC
:10304000019801F0DDF80346ADF80E30009B5A1CE4
:103050000092BDF80E20D2B23032D2B21A70BDF951
:103060001A20BDF91E309A4204D1009B5A1C0092CE
:103070002E221A70BDF90E30184600F0A7FE034646
:1030800002930298174900F0F5FE03460293019857
:10309000144900F0EFFE034601930198029900F0F5
:1030A000DFFD03460193BDF81A309BB201339BB29A
:1030B000ADF81A30BDF91A20BDF91C309A42BFDBB9
:1030C000009B5A1C009200221A7000235BB2184623
:1030D00009B030BDAFF30080000000A09999B93F5E
:1030E0000000F03F00002041CDCCCC3D0000E03F8F
:1030F00084B001900091002303930CE0039BDA005D
:10310000039B5B001344019A12781344303B0393F2
:10311000019B01330193019B1B78002BEED1009B97
:10312000039A1A6000235BB2184604B0704700BFD0
:1031300010B584B0019000914FF000030393019803
:10314000FFF7F2FD0346ADF8083000238DF80B3091
:10315000019B1B782D2B03D0019B1B782B2B03D1BC
:1031600001238DF80A3002E000238DF80A302CE0AC
:103170009DF80A30019A13441B782E2B0AD1BDF812
:103180000830DAB29DF80A30D31ADBB2013B8DF871
:103190000B3015E003981F4900F06CFE03461C46F7
:1031A0009DF80A30019A13441B78303B184600F012
:1031B0000DFE03462046194600F054FD03460393D6
:1031C0009DF80A3001338DF80A309DF80A309BB221
:1031D000BDF808209A42CBD805E003980D4900F0CD
:1031E000FDFE034603939DF80B305A1E8DF80B200D
:1031F000002BF2D1019B1B782D2B03D1039B83F075
:1032000000430393009B039A1A6000235BB21846A5
:1032100004B010BD0000204100B585B001900091C0
:1032200000230393019B0293019B002B02DA019B75
:103230005B420193039B5A1C03921A46009B981809
:10324000019A194B83FB02139910D317C91A0B4625
:103250009B000B445B00D11ACBB23033DBB203705E
:10326000019B114A82FB03129210DB17D31A0193C0
:10327000019B002BDEDC029B002B07DA039B5A1C10
:1032800003921A46009B13442D221A70039B009A46
:10329000134400221A700098FFF774FD00235BB2FC
:1032A000184605B05DF804FB6766666686B0019057
:1032B0000091002305930023049302E0059B013352
:1032C0000593019A059B13441B78002BF6D102E06D
:1032D000049B01330493009A049B13441B78002B36
:1032E000F6D1002303930CE0059A039B1344019A43
:1032F00013440099039A0A4412781A70039B01330D
:103300000393039A049B9A42EED30023184606B017
:10331000704700BF81F0004102E000BF83F000432E
:1033200030B54FEA41044FEA430594EA050F08BF60
:1033300090EA020F1FBF54EA000C55EA020C7FEA24
:10334000645C7FEA655C00F0E2804FEA5454D4EBA1
:103350005555B8BF6D420CDD2C4480EA020281EA6B
:10336000030382EA000083EA010180EA020281EAA3
:103370000303362D88BF30BD11F0004F4FEA0131F5
:103380004FF4801C4CEA113102D0404261EB410104
:1033900013F0004F4FEA03334CEA133302D052428A
:1033A00063EB430394EA050F00F0A780A4F1010446
:1033B000D5F1200E0DDB02FA0EFC22FA05F2801880
:1033C00041F1000103FA0EF2801843FA05F3594166
:1033D0000EE0A5F120050EF1200E012A03FA0EFCE5
:1033E00028BF4CF0020C43FA05F3C01851EBE3710F
:1033F00001F0004507D54FF0000EDCF1000C7EEB2C
:1034000000006EEB0101B1F5801F1BD3B1F5001F69
:103410000CD349085FEA30004FEA3C0C04F1010488
:103420004FEA445212F5800F80F09A80BCF1004FB1
:1034300008BF5FEA500C50F1000041EB045141EA33
:10344000050130BD5FEA4C0C404141EB010111F434
:10345000801FA4F10104E9D191F0000F04BF0146DF
:103460000020B1FA81F308BF2033A3F10B03B3F1BD
:1034700020020CDA0C3208DD02F1140CC2F10C024D
:1034800001FA0CF021FA02F10CE002F11402D8BFAB
:10349000C2F1200C01FA02F120FA0CFCDCBF41EA77
:1034A0000C019040E41AA2BF01EB0451294330BD46
:1034B0006FEA04041F3C1CDA0C340EDC04F1140423
:1034C000C4F1200220FA04F001FA02F340EA0300FA
:1034D00021FA04F345EA030130BDC4F10C04C4F140
:1034E000200220FA02F001FA04F340EA0300294620
:1034F00030BD21FA04F0294630BD94F0000F83F46A
:10350000801306BF81F480110134013D4EE77FEA4C
:10351000645C18BF7FEA655C29D094EA050F08BF98
:1035200090EA020F05D054EA000C04BF1946104679
:1035300030BD91EA030F1EBF0021002030BD5FEABD
:10354000545C05D14000494128BF41F0004130BDE5
:1035500014F580043CBF01F5801130BD01F0004539
:1035600045F0FE4141F470014FF0000030BD7FEAAC
:10357000645C1ABF194610467FEA655C1CBF0B46A7
:10358000024650EA013406BF52EA033591EA030FBE
:1035900041F4002130BD00BF90F0000F04BF0021B6
:1035A000704730B54FF4806404F132044FF00005E9
:1035B0004FF0000150E700BF90F0000F04BF002162
:1035C000704730B54FF4806404F1320410F00045C8
:1035D00048BF40424FF000013EE700BF42004FEAC3
:1035E000E2014FEA31014FEA02701FBF12F07F4340
:1035F00093F07F4F81F06051704792F0000F14BF3D
:1036000093F07F4F704730B54FF4607401F0004580
:1036100021F0004120E700BF50EA010208BF7047D7
:1036200030B54FF000050AE050EA010208BF7047CC
:1036300030B511F0004502D5404261EB41014FF435
:10364000806404F132045FEA915C3FF4DCAE4FF039
:1036500003025FEADC0C18BF03325FEADC0C18BF20
:10366000033202EBDC02C2F1200300FA03FC20FA71
:1036700002F001FA03FE40EA0E0021FA02F11444BE
:10368000C1E600BF70B54FF0FF0C4CF4E06C1CEAD3
:1036900011541DBF1CEA135594EA0C0F95EA0C0F48
:1036A00000F0DEF82C4481EA030621EA4C5123EABB
:1036B0004C5350EA013518BF52EA033541F48011EA
:1036C00043F4801338D0A0FB02CE4FF00005E1FB9D
:1036D00002E506F00042E0FB03E54FF00006E1FBE7
:1036E00003569CF0000F18BF4EF0010EA4F1FF042A
:1036F000B6F5007F64F5407404D25FEA4E0E6D416A
:1037000046EB060642EAC62141EA55514FEAC5207A
:1037100040EA5E504FEACE2EB4F1FD0C88BFBCF5F6
:10372000E06F1ED8BEF1004F08BF5FEA500E50F1A7
:10373000000041EB045170BD06F0004646EA01016D
:1037400040EA020081EA0301B4EB5C04C2BFD4EB9F
:103750000C0541EA045170BD41F480114FF0000E98
:10376000013C00F3AB8014F1360FDEBF002001F006
:10377000004170BDC4F10004203C35DA0C341BDC80
:1037800004F11404C4F1200500FA05F320FA04F052
:1037900001FA05F240EA020001F0004221F0004186
:1037A00010EBD37021FA04F642EB06015EEA430EF9
:1037B00008BF20EAD37070BDC4F10C04C4F1200529
:1037C00000FA04F320FA05F001FA04F240EA0200DC
:1037D00001F0004110EBD37041F100015EEA430EAD
:1037E00008BF20EAD37070BDC4F1200500FA05F2CD
:1037F0004EEA020E20FA04F301FA05F243EA02034C
:1038000021FA04F001F0004121FA04F220EA02005A
:1038100000EBD3705EEA430E08BF20EAD37070BDA0
:1038200094F0000F0FD101F00046400041EB010180
:1038300011F4801F08BF013CF7D041EA060195F062
:10384000000F18BF704703F00046520043EB03031C
:1038500013F4801F08BF013DF7D043EA0603704709
:1038600094EA0C0F0CEA135518BF95EA0C0F0CD014
:1038700050EA410618BF52EA4306D1D181EA03015A
:1038800001F000414FF0000070BD50EA410606BF54
:103890001046194652EA430619D094EA0C0F02D199
:1038A00050EA013613D195EA0C0F05D152EA0336DE
:1038B0001CBF104619460AD181EA030101F00041FC
:1038C00041F0FE4141F470014FF0000070BD41F045
:1038D000FE4141F4780170BD70B54FF0FF0C4CF41F
:1038E000E06C1CEA11541DBF1CEA135594EA0C0F3E
:1038F00095EA0C0F00F0A7F8A4EB050481EA030E8B
:1039000052EA03354FEA013100F088804FEA033371
:103910004FF0805545EA131343EA12634FEA02223F
:1039200045EA111545EA10654FEA00260EF0004100
:103930009D4208BF964244F1FD0404F5407402D252
:103940005B084FEA3202B61A65EB03055B084FEAE3
:1039500032024FF480104FF4002CB6EB020E75EBE0
:10396000030E22BFB61A754640EA0C005B084FEA08
:103970003202B6EB020E75EB030E22BFB61A754685
:1039800040EA5C005B084FEA3202B6EB020E75EBD0
:10399000030E22BFB61A754640EA9C005B084FEA48
:1039A0003202B6EB020E75EB030E22BFB61A754655
:1039B00040EADC0055EA060E18D04FEA051545EA44
:1039C00016754FEA06164FEAC30343EA52734FEAED
:1039D000C2025FEA1C1CC0D111F4801F0BD141EA66
:1039E00000014FF000004FF0004CB6E711F4801FCB
:1039F00004BF01430020B4F1FD0C88BFBCF5E06FAB
:103A00003FF6AFAEB5EB030C04BFB6EB020C5FEABA
:103A1000500C50F1000041EB045170BD0EF0004E0F
:103A20004EEA113114EB5C04C2BFD4EB0C0541EA41
:103A3000045170BD41F480114FF0000E013C90E63E
:103A400045EA060E8DE60CEA135594EA0C0F08BF02
:103A500095EA0C0F3FF43BAF94EA0C0F0AD150EA01
:103A600001347FF434AF95EA0C0F7FF425AF104694
:103A700019462CE795EA0C0F06D152EA03353FF4BC
:103A8000FDAE1046194622E750EA410618BF52EA39
:103A900043067FF4C5AE50EA41047FF40DAF52EA0D
:103AA00043057FF4EBAE12E74FF0FF3C06E000BFAA
:103AB0004FF0010C02E000BF4FF0010C4DF804CDB7
:103AC0004FEA410C7FEA6C5C4FEA430C18BF7FEA77
:103AD0006C5C1BD001B050EA410C0CBF52EA430CA5
:103AE00091EA030F02BF90EA020F0020704710F125
:103AF000000F91EA030F58BF994208BF90422CBFB4
:103B0000D8176FEAE37040F0010070474FEA410CAC
:103B10007FEA6C5C02D150EA013C07D14FEA430CCA
:103B20007FEA6C5CD6D152EA033CD3D05DF8040B3B
:103B3000704700BF8446104662468C46194663466D
:103B400000E000BF01B5FFF7B7FF002848BF10F144
:103B5000000F01BD4DF808EDFFF7F4FF0CBF012089
:103B600000205DF808FB00BF4DF808EDFFF7EAFF05
:103B700034BF012000205DF808FB00BF4DF808EDC0
:103B8000FFF7E0FF94BF012000205DF808FB00BFB5
:103B90004DF808EDFFF7CEFF94BF012000205DF83F
:103BA00008FB00BF4DF808EDFFF7C4FF34BF01204C
:103BB00000205DF808FB00BF4FEA4102B2F1E0438C
:103BC00024BFB3F5001CDCF1FE5C0DD901F0004C04
:103BD0004FEAC0024CEA5070B2F1004F40EB830054
:103BE00008BF20F00100704711F0804F21D113F180
:103BF0003872BCBF01F00040704741F480114FEAB9
:103C00005252C2F11802C2F1200C10FA0CF320FA41
:103C100002F018BF40F001004FEAC1234FEAD3235E
:103C200003FA0CFC40EA0C0023FA02F34FEA4303C8
:103C3000CCE77FEA625307D150EA01331EBF4FF051
:103C4000FE4040F44000704701F0004040F0FE406C
:103C500040F40000704700BF80F0004002E000BF69
:103C600081F0004142001FBF5FEA410392EA030F67
:103C70007FEA226C7FEA236C6AD04FEA1262D2EBB1
:103C80001363C1BFD218414048404140B8BF5B42B6
:103C9000192B88BF704710F0004F40F4000020F04F
:103CA0007F4018BF404211F0004F41F4000121F065
:103CB0007F4118BF494292EA030F3FD0A2F10102AF
:103CC00041FA03FC10EB0C00C3F1200301FA03F1ED
:103CD00000F0004302D5494260EB4000B0F5000F10
:103CE00013D3B0F1807F06D340084FEA310102F1CF
:103CF0000102FE2A51D2B1F1004F40EBC25008BF81
:103D000020F0010040EA03007047490040EB00004A
:103D100010F4000FA2F10102EDD1B0FA80FCACF179
:103D2000080CB2EB0C0200FA0CF0AABF00EBC25078
:103D300052421843BCBFD0401843704792F0000F66
:103D400081F4000106BF80F400000132013BB5E7B9
:103D50004FEA41037FEA226C18BF7FEA236C21D02F
:103D600092EA030F04D092F0000F08BF0846704794
:103D700090EA010F1CBF0020704712F07F4F04D162
:103D8000400028BF40F00040704712F100723CBF75
:103D900000F50000704700F0004343F0FE4040F49F
:103DA000000070477FEA226216BF08467FEA23635D
:103DB0000146420206BF5FEA412390EA010F40F448
:103DC000800070474FF0000304E000BF10F0004394
:103DD00048BF40425FEA000C08BF704743F096437B
:103DE00001464FF000001CE050EA010208BF704796
:103DF0004FF000030AE000BF50EA010208BF70471D
:103E000011F0004302D5404261EB41015FEA010C31
:103E100002BF84460146002043F0B64308BFA3F129
:103E20008053A3F50003BCFA8CF2083AA3EBC2530B
:103E300010DB01FA02FC634400FA02FCC2F120022A
:103E4000BCF1004F20FA02F243EB020008BF20F061
:103E50000100704702F1200201FA02FCC2F12002C7
:103E600050EA4C0021FA02F243EB020008BF20EABC
:103E7000DC7070474FF0FF0C1CEAD0521EBF1CEAEA
:103E8000D15392EA0C0F93EA0C0F6FD01A4480EAD8
:103E9000010C400218BF5FEA41211ED04FF00063C1
:103EA00043EA501043EA5111A0FB01310CF00040ED
:103EB000B1F5000F3EBF490041EAD3715B0040EA13
:103EC000010062F17F02FD2A1DD8B3F1004F40EBE3
:103ED000C25008BF20F00100704790F0000F0CF0B6
:103EE000004C08BF49024CEA502040EA51207F3A7A
:103EF000C2BFD2F1FF0340EAC250704740F4000055
:103F00004FF00003013A5DDC12F1190FDCBF00F045
:103F100000407047C2F10002410021FA02F1C2F1F3
:103F2000200200FA02FC5FEA310040F1000053EA8F
:103F30004C0308BF20EADC70704792F0000F00F0DD
:103F4000004C02BF400010F4000F013AF9D040EAE3
:103F50000C0093F0000F01F0004C02BF490011F477
:103F6000000F013BF9D041EA0C018FE70CEAD15375
:103F700092EA0C0F18BF93EA0C0F0AD030F0004CF5
:103F800018BF31F0004CD8D180EA010000F00040A9
:103F9000704790F0000F17BF90F0004F084691F067
:103FA000000F91F0004F14D092EA0C0F01D14202A1
:103FB0000FD193EA0C0F03D14B0218BF084608D16A
:103FC00080EA010000F0004040F0FE4040F40000B4
:103FD000704740F0FE4040F4400070474FF0FF0C47
:103FE0001CEAD0521EBF1CEAD15392EA0C0F93EA8E
:103FF0000C0F69D0A2EB030280EA010C49024FEAE0
:10400000402037D04FF0805343EA111143EA101398
:104010000CF000408B4238BF5B0042F17D024FF450
:10402000000C8B4224BF5B1A40EA0C00B3EB510F2B
:1040300024BFA3EB510340EA5C00B3EB910F24BF14
:10404000A3EB910340EA9C00B3EBD10F24BFA3EB99
:10405000D10340EADC001B0118BF5FEA1C1CE0D161
:10406000FD2A3FF650AF8B4240EBC25008BF20F014
:10407000010070470CF0004C4CEA50207F32C2BF68
:10408000D2F1FF0340EAC250704740F400004FF005
:104090000003013A37E792F0000F00F0004C02BF36
:1040A000400010F4000F013AF9D040EA0C0093F000
:1040B000000F01F0004C02BF490011F4000F013B5A
:1040C000F9D041EA0C0195E70CEAD15392EA0C0FC2
:1040D00008D142027FF47DAF93EA0C0F7FF470AFFA
:1040E000084676E793EA0C0F04D14B023FF44CAF3D
:1040F00008466EE730F0004C18BF31F0004CCAD1D2
:1041000030F000427FF45CAF31F000437FF43CAF0D
:104110005FE700BF4FF0FF3C06E000BF4FF0010C2F
:1041200002E000BF4FF0010C4DF804CD4FEA400211
:104130004FEA41037FEA226C18BF7FEA236C11D05B
:1041400001B052EA530C18BF90EA010F58BFB2EB0E
:10415000030088BFC81738BF6FEAE17018BF40F08E
:10416000010070477FEA226C02D15FEA402C05D142
:104170007FEA236CE4D15FEA412CE1D05DF8040BC7
:10418000704700BF844608466146FFE70FB5FFF75A
:10419000C9FF002848BF10F1000F0FBD4DF808ED12
:1041A000FFF7F4FF0CBF012000205DF808FB00BF03
:1041B0004DF808EDFFF7EAFF34BF012000205DF85D
:1041C00008FB00BF4DF808EDFFF7E0FF94BF0120AA
:1041D00000205DF808FB00BF4DF808EDFFF7D2FFA7
:1041E00094BF012000205DF808FB00BF4DF808EDEA
:1041F000FFF7C8FF34BF012000205DF808FB00BFB7
:104200004FEA4002B2F1FE4F0FD34FF09E03B3EBE3
:1042100012620DD94FEA002343F0004310F0004F23
:1042200023FA02F018BF404270474FF00000704779
:1042300012F1610F01D1420205D110F0004008BF18
:104240006FF0004070474FF00000704742000ED200
:10425000B2F1FE4F0BD34FF09E03B3EB126209D4C1
:104260004FEA002343F0004323FA02F070474FF077
:104270000000704712F1610F01D1420202D14FF0EC
:10428000FF3070474FF00000704700BF024B0146FF
:10429000186800F04FB800BF3CC30720024B01462E
:1042A000186800F003B800BF3CC3072030B50029F0
:1042B0003CD051F8042C0B1F1D49002AB8BF9B1895
:1042C0000A680C4612B95A600B6030BD93420DD299
:1042D00019685818904201BF5A5852181A6042681B
:1042E00023605A6030BD994203D80A4651680029BC
:1042F000F9D1146815199D420AD11B682344D018BE
:104300008842136012D10868034413604B680CE0C4
:1043100002D90C23036030BD1C681819884201BF04
:1043200008684968001918605960536030BD00BFC3
:104330003004001070B5CC1C24F0030408340C2C9D
:1043400038BF0C24002C064603DA0C23336000200F
:1043500070BD8C42F9D3204A136810461946A1B1AA
:104360000A68121B0ED40B2A03D90A608B188C50D2
:104370001FE08B420BBF5A684A6802605A6018BF40
:104380000B4616E00B464968E9E7144D2B681BB94C
:10439000304600F025F828603046214600F020F82D
:1043A000421C0346D1D0C51C25F0030585420AD125
:1043B0001C6003F10B001A1D20F00700821A0AD0BE
:1043C0005142995070BD3046E91A00F009F80130A9
:1043D000BBD02B46ECE770BD300400102C0400105D
:1043E00038B5064C002305460846236000F070F8F7
:1043F000431C02D1236803B12B6038BD5004001068
:1044000038B50C460968054609B1FFF7F9FF28469B
:104410002146BDE83840FFF749BF00002B4B70B57F
:104420001B680446984250D0436AD3B1DB6893B10D
:104430000025636ADB68595929B10E682046FFF7E9
:1044400035FF3146F8E70435802DF2D1636A204606
:10445000D968FFF72BFF636A196811B12046FFF78F
:1044600025FF616911B12046FFF720FF616A11B194
:104470002046FFF71BFFA16B11B12046FFF716FF87
:10448000E16B11B12046FFF711FF216C11B12046FD
:10449000FFF70CFFE16D11B12046FFF707FFA16D9B
:1044A00011B12046FFF702FF616B11B12046FFF703
:1044B000FDFEA3694BB1A36A20469847A16C21B1C8
:1044C0002046BDE87040FFF79BBF70BD3CC307208E
:1044D000044A05491368002B08BF0B4618441060B6
:1044E000184670473404001040C3072048656C6CC0
:1044F0006F20576F726C64200A0000006400000097
:104500000300000000204060800000000100000067
:10451000020000000400000008000000100000007D
:1045200020000000400000008000000000010000AA
:10453000000200000004000000080000001000005D
:10454000002000000040000000800000000001008A
:10455000000002000000040000000800000010003D
:10456000000020000000400000008000000000016A
:10457000000000020000000400000008000000101D
:10458000000000200000004000000080040102083C
:1045900060090000C012000080250000004B0000F0
:1045A0000096000000E1000000C2010000000000D1
:1045B00000000000010000000300000005000000F2
:1045C00007000000000000000100000000000000E3
:1045D00001000000020000000300000002020101CF
:1045E00000000000000001010000000101000000C7
:1045F00000000000000303000000000002020000B1
:1046000000000000020200000000000000000000A6
:10461000000000000000000000000000000000009A
:10462000000000000000000000000000000000008A
:104630000000000000000000030300004300000031
:04464000DCC20720B1
:1046440000E1F505001BB70001000000001A01009D
:10465400000000000000000000190100000000003C
:1046640000000000041D0100000000000000000024
:104674000018000000000000000000000002000319
:104684000006080001000000000000000000000017
:104694003CC00720320000000500000006000000B6
:1046A40007000000080000000800000010000000DF
:1046B40000000001000000020600000008000000E5
:1046C400300000003200000000C000400000014043
:1046D4000080094000C00940040000000000803F41
:1046E400000100007593883F010F00008716893F81
:1046F400010E000023DB893F010D0000BE9F8A3FAD
:10470400010C0000E3A58B3F010B0000CDCC8C3FD6
:10471400010A00003F358E3F010900000000903F70
:10472400010800002506913F020F0000D34D923F7F
:104734000107000046B6933F020D00004260953F1A
:1047440001060000C74B973F020B00009A99993F5E
:10475400010500005A649B3F030E00007F6A9C3FE2
:104764000209000068919D3F030D00000000A03F76
:10477400010400000E2DA23F040F0000AAF1A23F85
:10478400030B0000A69BA43F020700006666A63F39
:10479400030A00008B6CA73F040D0000BE9FAA3FD4
:1047A400010300002DB2AD3F050E00008D97AE3F12
:1047B400040B00000000B03F03080000AE47B13F07
:1047C400050D00003333B33F020500004260B53FDE
:1047D400050C000079E9B63F03070000FED4B83F9A
:1047E40004090000713DBA3F050B0000D122BB3F14
:1047F400060D0000A8C6BB3F070F00000000C03F25
:10480400010200005839C43F080F00002FDDC43FE7
:10481400070D00008FC2C53F060B0000022BC73FE7
:10482400050900008716C93F04070000BE9FCA3F60
:10483400070C0000CDCCCC3F0305000052B8CE3F9E
:10484400080D00000000D03F050800007368D13F48
:10485400070B0000D34DD23F090E00004260D53F44
:10486400020300007593D83F090D00009A99D93FBF
:10487400070A00005A64DB3F05070000560EDD3FBF
:10488400080B0000F2D2DD3F0B0F00000000E03FF8
:1048940003040000986EE23F0A0D00008195E33F97
:1048A40007090000A69BE43F0B0E00006666E63F86
:1048B4000405000039B4E83F090B0000BE9FEA3F3D
:1048C40005060000BA49EC3F0B0D00002DB2ED3F88
:1048D40006070000DBF9EE3F0D0F00000000F03F7B
:1048E40007080000C1CAF13F080900003333F33F51
:1048F400090A00001D5AF43F0A0B00004260F53F0C
:104904000B0C0000DD24F63F0C0D000079E9F63FA6
:104914000D0E00008B6CF73F0E0F0000000000002E
:104924000000000000000000000000000000000083
:104934000000000000000000000000003C460000F1
:104944000000000000000000000000000000000063
:104954000000000000000000000000000000000053
:104964000000000000000000000000000000000043
:10497400000000000000000000000000DCC207206E
:00000001FF
